{
  "_format": "hh-sol-artifact-1",
  "contractName": "TouristIDRegistry",
  "sourceName": "contracts/TouristIDRegistry.sol",
  "abi": [
    {
      "inputs": [
        {
          "internalType": "address",
          "name": "admin",
          "type": "address"
        },
        {
          "internalType": "string",
          "name": "name_",
          "type": "string"
        },
        {
          "internalType": "string",
          "name": "symbol_",
          "type": "string"
        }
      ],
      "stateMutability": "nonpayable",
      "type": "constructor"
    },
    {
      "inputs": [],
      "name": "AccessControlBadConfirmation",
      "type": "error"
    },
    {
      "inputs": [
        {
          "internalType": "address",
          "name": "account",
          "type": "address"
        },
        {
          "internalType": "bytes32",
          "name": "neededRole",
          "type": "bytes32"
        }
      ],
      "name": "AccessControlUnauthorizedAccount",
      "type": "error"
    },
    {
      "inputs": [
        {
          "internalType": "address",
          "name": "holder",
          "type": "address"
        }
      ],
      "name": "AlreadyHasActiveId",
      "type": "error"
    },
    {
      "inputs": [
        {
          "internalType": "address",
          "name": "sender",
          "type": "address"
        },
        {
          "internalType": "uint256",
          "name": "tokenId",
          "type": "uint256"
        },
        {
          "internalType": "address",
          "name": "owner",
          "type": "address"
        }
      ],
      "name": "ERC721IncorrectOwner",
      "type": "error"
    },
    {
      "inputs": [
        {
          "internalType": "address",
          "name": "operator",
          "type": "address"
        },
        {
          "internalType": "uint256",
          "name": "tokenId",
          "type": "uint256"
        }
      ],
      "name": "ERC721InsufficientApproval",
      "type": "error"
    },
    {
      "inputs": [
        {
          "internalType": "address",
          "name": "approver",
          "type": "address"
        }
      ],
      "name": "ERC721InvalidApprover",
      "type": "error"
    },
    {
      "inputs": [
        {
          "internalType": "address",
          "name": "operator",
          "type": "address"
        }
      ],
      "name": "ERC721InvalidOperator",
      "type": "error"
    },
    {
      "inputs": [
        {
          "internalType": "address",
          "name": "owner",
          "type": "address"
        }
      ],
      "name": "ERC721InvalidOwner",
      "type": "error"
    },
    {
      "inputs": [
        {
          "internalType": "address",
          "name": "receiver",
          "type": "address"
        }
      ],
      "name": "ERC721InvalidReceiver",
      "type": "error"
    },
    {
      "inputs": [
        {
          "internalType": "address",
          "name": "sender",
          "type": "address"
        }
      ],
      "name": "ERC721InvalidSender",
      "type": "error"
    },
    {
      "inputs": [
        {
          "internalType": "uint256",
          "name": "tokenId",
          "type": "uint256"
        }
      ],
      "name": "ERC721NonexistentToken",
      "type": "error"
    },
    {
      "inputs": [],
      "name": "InvalidTimeWindow",
      "type": "error"
    },
    {
      "inputs": [],
      "name": "NonTransferable",
      "type": "error"
    },
    {
      "inputs": [
        {
          "internalType": "uint256",
          "name": "tokenId",
          "type": "uint256"
        }
      ],
      "name": "NotActiveOrExpired",
      "type": "error"
    },
    {
      "inputs": [
        {
          "internalType": "address",
          "name": "caller",
          "type": "address"
        }
      ],
      "name": "NotTokenHolder",
      "type": "error"
    },
    {
      "anonymous": false,
      "inputs": [
        {
          "indexed": true,
          "internalType": "address",
          "name": "owner",
          "type": "address"
        },
        {
          "indexed": true,
          "internalType": "address",
          "name": "approved",
          "type": "address"
        },
        {
          "indexed": true,
          "internalType": "uint256",
          "name": "tokenId",
          "type": "uint256"
        }
      ],
      "name": "Approval",
      "type": "event"
    },
    {
      "anonymous": false,
      "inputs": [
        {
          "indexed": true,
          "internalType": "address",
          "name": "owner",
          "type": "address"
        },
        {
          "indexed": true,
          "internalType": "address",
          "name": "operator",
          "type": "address"
        },
        {
          "indexed": false,
          "internalType": "bool",
          "name": "approved",
          "type": "bool"
        }
      ],
      "name": "ApprovalForAll",
      "type": "event"
    },
    {
      "anonymous": false,
      "inputs": [
        {
          "indexed": true,
          "internalType": "uint256",
          "name": "tokenId",
          "type": "uint256"
        },
        {
          "indexed": false,
          "internalType": "bool",
          "name": "isPanic",
          "type": "bool"
        },
        {
          "indexed": true,
          "internalType": "address",
          "name": "by",
          "type": "address"
        }
      ],
      "name": "PanicStateSet",
      "type": "event"
    },
    {
      "anonymous": false,
      "inputs": [
        {
          "indexed": true,
          "internalType": "bytes32",
          "name": "role",
          "type": "bytes32"
        },
        {
          "indexed": true,
          "internalType": "bytes32",
          "name": "previousAdminRole",
          "type": "bytes32"
        },
        {
          "indexed": true,
          "internalType": "bytes32",
          "name": "newAdminRole",
          "type": "bytes32"
        }
      ],
      "name": "RoleAdminChanged",
      "type": "event"
    },
    {
      "anonymous": false,
      "inputs": [
        {
          "indexed": true,
          "internalType": "bytes32",
          "name": "role",
          "type": "bytes32"
        },
        {
          "indexed": true,
          "internalType": "address",
          "name": "account",
          "type": "address"
        },
        {
          "indexed": true,
          "internalType": "address",
          "name": "sender",
          "type": "address"
        }
      ],
      "name": "RoleGranted",
      "type": "event"
    },
    {
      "anonymous": false,
      "inputs": [
        {
          "indexed": true,
          "internalType": "bytes32",
          "name": "role",
          "type": "bytes32"
        },
        {
          "indexed": true,
          "internalType": "address",
          "name": "account",
          "type": "address"
        },
        {
          "indexed": true,
          "internalType": "address",
          "name": "sender",
          "type": "address"
        }
      ],
      "name": "RoleRevoked",
      "type": "event"
    },
    {
      "anonymous": false,
      "inputs": [
        {
          "indexed": true,
          "internalType": "uint256",
          "name": "tokenId",
          "type": "uint256"
        },
        {
          "indexed": false,
          "internalType": "uint8",
          "name": "score",
          "type": "uint8"
        },
        {
          "indexed": true,
          "internalType": "address",
          "name": "by",
          "type": "address"
        }
      ],
      "name": "SafetyScoreUpdated",
      "type": "event"
    },
    {
      "anonymous": false,
      "inputs": [
        {
          "indexed": true,
          "internalType": "uint256",
          "name": "tokenId",
          "type": "uint256"
        },
        {
          "indexed": true,
          "internalType": "address",
          "name": "to",
          "type": "address"
        }
      ],
      "name": "TouristIssued",
      "type": "event"
    },
    {
      "anonymous": false,
      "inputs": [
        {
          "indexed": true,
          "internalType": "uint256",
          "name": "tokenId",
          "type": "uint256"
        },
        {
          "indexed": true,
          "internalType": "address",
          "name": "by",
          "type": "address"
        }
      ],
      "name": "TouristRevoked",
      "type": "event"
    },
    {
      "anonymous": false,
      "inputs": [
        {
          "indexed": true,
          "internalType": "uint256",
          "name": "tokenId",
          "type": "uint256"
        },
        {
          "indexed": false,
          "internalType": "bool",
          "name": "optedIn",
          "type": "bool"
        },
        {
          "indexed": true,
          "internalType": "address",
          "name": "by",
          "type": "address"
        }
      ],
      "name": "TrackingOptInSet",
      "type": "event"
    },
    {
      "anonymous": false,
      "inputs": [
        {
          "indexed": true,
          "internalType": "address",
          "name": "from",
          "type": "address"
        },
        {
          "indexed": true,
          "internalType": "address",
          "name": "to",
          "type": "address"
        },
        {
          "indexed": true,
          "internalType": "uint256",
          "name": "tokenId",
          "type": "uint256"
        }
      ],
      "name": "Transfer",
      "type": "event"
    },
    {
      "anonymous": false,
      "inputs": [
        {
          "indexed": true,
          "internalType": "uint256",
          "name": "tokenId",
          "type": "uint256"
        },
        {
          "indexed": false,
          "internalType": "uint64",
          "name": "validUntil",
          "type": "uint64"
        },
        {
          "indexed": true,
          "internalType": "address",
          "name": "by",
          "type": "address"
        }
      ],
      "name": "ValidityExtended",
      "type": "event"
    },
    {
      "inputs": [],
      "name": "DEFAULT_ADMIN_ROLE",
      "outputs": [
        {
          "internalType": "bytes32",
          "name": "",
          "type": "bytes32"
        }
      ],
      "stateMutability": "view",
      "type": "function"
    },
    {
      "inputs": [],
      "name": "ROLE_ADMIN",
      "outputs": [
        {
          "internalType": "bytes32",
          "name": "",
          "type": "bytes32"
        }
      ],
      "stateMutability": "view",
      "type": "function"
    },
    {
      "inputs": [],
      "name": "ROLE_ISSUER",
      "outputs": [
        {
          "internalType": "bytes32",
          "name": "",
          "type": "bytes32"
        }
      ],
      "stateMutability": "view",
      "type": "function"
    },
    {
      "inputs": [],
      "name": "ROLE_RESPONDER",
      "outputs": [
        {
          "internalType": "bytes32",
          "name": "",
          "type": "bytes32"
        }
      ],
      "stateMutability": "view",
      "type": "function"
    },
    {
      "inputs": [
        {
          "internalType": "address",
          "name": "",
          "type": "address"
        }
      ],
      "name": "activeTokenOf",
      "outputs": [
        {
          "internalType": "uint256",
          "name": "",
          "type": "uint256"
        }
      ],
      "stateMutability": "view",
      "type": "function"
    },
    {
      "inputs": [
        {
          "internalType": "address",
          "name": "to",
          "type": "address"
        },
        {
          "internalType": "uint256",
          "name": "tokenId",
          "type": "uint256"
        }
      ],
      "name": "approve",
      "outputs": [],
      "stateMutability": "nonpayable",
      "type": "function"
    },
    {
      "inputs": [
        {
          "internalType": "address",
          "name": "owner",
          "type": "address"
        }
      ],
      "name": "balanceOf",
      "outputs": [
        {
          "internalType": "uint256",
          "name": "",
          "type": "uint256"
        }
      ],
      "stateMutability": "view",
      "type": "function"
    },
    {
      "inputs": [
        {
          "internalType": "uint256",
          "name": "tokenId",
          "type": "uint256"
        },
        {
          "internalType": "uint64",
          "name": "newValidUntil",
          "type": "uint64"
        }
      ],
      "name": "extendValidity",
      "outputs": [],
      "stateMutability": "nonpayable",
      "type": "function"
    },
    {
      "inputs": [
        {
          "internalType": "address",
          "name": "holder",
          "type": "address"
        }
      ],
      "name": "getActiveTokenId",
      "outputs": [
        {
          "internalType": "uint256",
          "name": "",
          "type": "uint256"
        }
      ],
      "stateMutability": "view",
      "type": "function"
    },
    {
      "inputs": [
        {
          "internalType": "uint256",
          "name": "tokenId",
          "type": "uint256"
        }
      ],
      "name": "getApproved",
      "outputs": [
        {
          "internalType": "address",
          "name": "",
          "type": "address"
        }
      ],
      "stateMutability": "view",
      "type": "function"
    },
    {
      "inputs": [
        {
          "internalType": "uint256",
          "name": "tokenId",
          "type": "uint256"
        }
      ],
      "name": "getProfile",
      "outputs": [
        {
          "components": [
            {
              "internalType": "bytes32",
              "name": "kycHash",
              "type": "bytes32"
            },
            {
              "internalType": "string",
              "name": "itinerary",
              "type": "string"
            },
            {
              "internalType": "string",
              "name": "emergencyContact",
              "type": "string"
            },
            {
              "internalType": "string",
              "name": "homeCountry",
              "type": "string"
            },
            {
              "internalType": "uint64",
              "name": "validFrom",
              "type": "uint64"
            },
            {
              "internalType": "uint64",
              "name": "validUntil",
              "type": "uint64"
            },
            {
              "internalType": "bool",
              "name": "optedInTracking",
              "type": "bool"
            },
            {
              "internalType": "uint8",
              "name": "safetyScore",
              "type": "uint8"
            },
            {
              "internalType": "bool",
              "name": "isPanic",
              "type": "bool"
            }
          ],
          "internalType": "struct TouristIDRegistry.TouristProfile",
          "name": "",
          "type": "tuple"
        }
      ],
      "stateMutability": "view",
      "type": "function"
    },
    {
      "inputs": [
        {
          "internalType": "bytes32",
          "name": "role",
          "type": "bytes32"
        }
      ],
      "name": "getRoleAdmin",
      "outputs": [
        {
          "internalType": "bytes32",
          "name": "",
          "type": "bytes32"
        }
      ],
      "stateMutability": "view",
      "type": "function"
    },
    {
      "inputs": [
        {
          "internalType": "address",
          "name": "account",
          "type": "address"
        }
      ],
      "name": "grantIssuer",
      "outputs": [],
      "stateMutability": "nonpayable",
      "type": "function"
    },
    {
      "inputs": [
        {
          "internalType": "address",
          "name": "account",
          "type": "address"
        }
      ],
      "name": "grantResponder",
      "outputs": [],
      "stateMutability": "nonpayable",
      "type": "function"
    },
    {
      "inputs": [
        {
          "internalType": "bytes32",
          "name": "role",
          "type": "bytes32"
        },
        {
          "internalType": "address",
          "name": "account",
          "type": "address"
        }
      ],
      "name": "grantRole",
      "outputs": [],
      "stateMutability": "nonpayable",
      "type": "function"
    },
    {
      "inputs": [
        {
          "internalType": "bytes32",
          "name": "role",
          "type": "bytes32"
        },
        {
          "internalType": "address",
          "name": "account",
          "type": "address"
        }
      ],
      "name": "hasRole",
      "outputs": [
        {
          "internalType": "bool",
          "name": "",
          "type": "bool"
        }
      ],
      "stateMutability": "view",
      "type": "function"
    },
    {
      "inputs": [
        {
          "internalType": "uint256",
          "name": "tokenId",
          "type": "uint256"
        }
      ],
      "name": "isActive",
      "outputs": [
        {
          "internalType": "bool",
          "name": "",
          "type": "bool"
        }
      ],
      "stateMutability": "view",
      "type": "function"
    },
    {
      "inputs": [
        {
          "internalType": "address",
          "name": "owner",
          "type": "address"
        },
        {
          "internalType": "address",
          "name": "operator",
          "type": "address"
        }
      ],
      "name": "isApprovedForAll",
      "outputs": [
        {
          "internalType": "bool",
          "name": "",
          "type": "bool"
        }
      ],
      "stateMutability": "view",
      "type": "function"
    },
    {
      "inputs": [
        {
          "internalType": "address",
          "name": "to",
          "type": "address"
        },
        {
          "internalType": "bytes32",
          "name": "kycHash",
          "type": "bytes32"
        },
        {
          "internalType": "string",
          "name": "itinerary",
          "type": "string"
        },
        {
          "internalType": "string",
          "name": "emergencyContact",
          "type": "string"
        },
        {
          "internalType": "string",
          "name": "homeCountry",
          "type": "string"
        },
        {
          "internalType": "uint64",
          "name": "validFrom",
          "type": "uint64"
        },
        {
          "internalType": "uint64",
          "name": "validUntil",
          "type": "uint64"
        },
        {
          "internalType": "bool",
          "name": "optedInTracking",
          "type": "bool"
        },
        {
          "internalType": "uint8",
          "name": "initialSafetyScore",
          "type": "uint8"
        }
      ],
      "name": "issueID",
      "outputs": [
        {
          "internalType": "uint256",
          "name": "tokenId",
          "type": "uint256"
        }
      ],
      "stateMutability": "nonpayable",
      "type": "function"
    },
    {
      "inputs": [],
      "name": "name",
      "outputs": [
        {
          "internalType": "string",
          "name": "",
          "type": "string"
        }
      ],
      "stateMutability": "view",
      "type": "function"
    },
    {
      "inputs": [
        {
          "internalType": "uint256",
          "name": "tokenId",
          "type": "uint256"
        }
      ],
      "name": "ownerOf",
      "outputs": [
        {
          "internalType": "address",
          "name": "",
          "type": "address"
        }
      ],
      "stateMutability": "view",
      "type": "function"
    },
    {
      "inputs": [
        {
          "internalType": "bytes32",
          "name": "role",
          "type": "bytes32"
        },
        {
          "internalType": "address",
          "name": "callerConfirmation",
          "type": "address"
        }
      ],
      "name": "renounceRole",
      "outputs": [],
      "stateMutability": "nonpayable",
      "type": "function"
    },
    {
      "inputs": [
        {
          "internalType": "uint256",
          "name": "tokenId",
          "type": "uint256"
        }
      ],
      "name": "revokeID",
      "outputs": [],
      "stateMutability": "nonpayable",
      "type": "function"
    },
    {
      "inputs": [
        {
          "internalType": "address",
          "name": "account",
          "type": "address"
        }
      ],
      "name": "revokeIssuer",
      "outputs": [],
      "stateMutability": "nonpayable",
      "type": "function"
    },
    {
      "inputs": [
        {
          "internalType": "address",
          "name": "account",
          "type": "address"
        }
      ],
      "name": "revokeResponder",
      "outputs": [],
      "stateMutability": "nonpayable",
      "type": "function"
    },
    {
      "inputs": [
        {
          "internalType": "bytes32",
          "name": "role",
          "type": "bytes32"
        },
        {
          "internalType": "address",
          "name": "account",
          "type": "address"
        }
      ],
      "name": "revokeRole",
      "outputs": [],
      "stateMutability": "nonpayable",
      "type": "function"
    },
    {
      "inputs": [
        {
          "internalType": "address",
          "name": "from",
          "type": "address"
        },
        {
          "internalType": "address",
          "name": "to",
          "type": "address"
        },
        {
          "internalType": "uint256",
          "name": "tokenId",
          "type": "uint256"
        }
      ],
      "name": "safeTransferFrom",
      "outputs": [],
      "stateMutability": "nonpayable",
      "type": "function"
    },
    {
      "inputs": [
        {
          "internalType": "address",
          "name": "from",
          "type": "address"
        },
        {
          "internalType": "address",
          "name": "to",
          "type": "address"
        },
        {
          "internalType": "uint256",
          "name": "tokenId",
          "type": "uint256"
        },
        {
          "internalType": "bytes",
          "name": "data",
          "type": "bytes"
        }
      ],
      "name": "safeTransferFrom",
      "outputs": [],
      "stateMutability": "nonpayable",
      "type": "function"
    },
    {
      "inputs": [
        {
          "internalType": "address",
          "name": "operator",
          "type": "address"
        },
        {
          "internalType": "bool",
          "name": "approved",
          "type": "bool"
        }
      ],
      "name": "setApprovalForAll",
      "outputs": [],
      "stateMutability": "nonpayable",
      "type": "function"
    },
    {
      "inputs": [
        {
          "internalType": "uint256",
          "name": "tokenId",
          "type": "uint256"
        },
        {
          "internalType": "bool",
          "name": "isPanic_",
          "type": "bool"
        }
      ],
      "name": "setPanic",
      "outputs": [],
      "stateMutability": "nonpayable",
      "type": "function"
    },
    {
      "inputs": [
        {
          "internalType": "uint256",
          "name": "tokenId",
          "type": "uint256"
        },
        {
          "internalType": "bool",
          "name": "optedIn",
          "type": "bool"
        }
      ],
      "name": "setTrackingOptIn",
      "outputs": [],
      "stateMutability": "nonpayable",
      "type": "function"
    },
    {
      "inputs": [
        {
          "internalType": "bytes4",
          "name": "interfaceId",
          "type": "bytes4"
        }
      ],
      "name": "supportsInterface",
      "outputs": [
        {
          "internalType": "bool",
          "name": "",
          "type": "bool"
        }
      ],
      "stateMutability": "view",
      "type": "function"
    },
    {
      "inputs": [],
      "name": "symbol",
      "outputs": [
        {
          "internalType": "string",
          "name": "",
          "type": "string"
        }
      ],
      "stateMutability": "view",
      "type": "function"
    },
    {
      "inputs": [
        {
          "internalType": "uint256",
          "name": "tokenId",
          "type": "uint256"
        }
      ],
      "name": "tokenURI",
      "outputs": [
        {
          "internalType": "string",
          "name": "",
          "type": "string"
        }
      ],
      "stateMutability": "view",
      "type": "function"
    },
    {
      "inputs": [
        {
          "internalType": "address",
          "name": "from",
          "type": "address"
        },
        {
          "internalType": "address",
          "name": "to",
          "type": "address"
        },
        {
          "internalType": "uint256",
          "name": "tokenId",
          "type": "uint256"
        }
      ],
      "name": "transferFrom",
      "outputs": [],
      "stateMutability": "nonpayable",
      "type": "function"
    },
    {
      "inputs": [
        {
          "internalType": "uint256",
          "name": "tokenId",
          "type": "uint256"
        },
        {
          "internalType": "uint8",
          "name": "newScore",
          "type": "uint8"
        }
      ],
      "name": "updateSafetyScore",
      "outputs": [],
      "stateMutability": "nonpayable",
      "type": "function"
    },
    {
      "inputs": [
        {
          "internalType": "address",
          "name": "holder",
          "type": "address"
        }
      ],
      "name": "verifyAddressActive",
      "outputs": [
        {
          "internalType": "bool",
          "name": "",
          "type": "bool"
        }
      ],
      "stateMutability": "view",
      "type": "function"
    }
  ],
  "bytecode": "0x608060405234620003515762002b20803803806200001d8162000356565b928339810160608282031262000351578151906001600160a01b0382168203620003515760208381015190936001600160401b0391828111620003515783620000689183016200037c565b92604082015183811162000351576200008292016200037c565b8251908282116200033b576000958654926001958685811c9516801562000330575b838610146200031c578190601f95868111620002c9575b50839086831160011462000265578a9262000259575b5050600019600383901b1c191690861b1787555b8151938411620002455784548581811c911680156200023a575b828210146200022657838111620001de575b5080928411600114620001735750620001569591908362000167575b5050600019600383901b1c191690821b1781555b6007556200014f81620003ee565b506200046f565b506040516125ed9081620005138239f35b0151905038806200012d565b8487528087209396601f198816915b828210620001c6575050918493918762000156989410620001ac575b505050811b01815562000141565b015160001960f88460031b161c191690553880806200019e565b80878697829497870151815501960194019062000182565b8588528188208480870160051c8201928488106200021c575b0160051c019086905b8281106200021057505062000111565b89815501869062000200565b92508192620001f7565b634e487b7160e01b88526022600452602488fd5b90607f1690620000ff565b634e487b7160e01b87526041600452602487fd5b015190503880620000d1565b8a8052848b208994509190601f1984168c5b87828210620002b2575050841162000298575b505050811b018755620000e5565b015160001960f88460031b161c191690553880806200028a565b8385015186558c9790950194938401930162000277565b909150898052838a208680850160051c82019286861062000312575b918a91869594930160051c01915b82811062000303575050620000bb565b8c81558594508a9101620002f3565b92508192620002e5565b634e487b7160e01b89526022600452602489fd5b94607f1694620000a4565b634e487b7160e01b600052604160045260246000fd5b600080fd5b6040519190601f01601f191682016001600160401b038111838210176200033b57604052565b919080601f84011215620003515782516001600160401b0381116200033b57602090620003b2601f8201601f1916830162000356565b92818452828287010111620003515760005b818110620003da57508260009394955001015290565b8581018301518482018401528201620003c4565b6001600160a01b031660008181527f54cdd369e4e8a8515e52ca72ec816c2101831ad1f18bf44102ed171459c9b4f8602052604081205490919060ff166200046b5781805260066020526040822081835260205260408220600160ff19825416179055339160008051602062002b008339815191528180a4600190565b5090565b6001600160a01b031660008181527f94fdc7a45360f568054dff4fd08a1be79188f5f51f010270910b0659487f710860205260408120549091907f2172861495e7b85edac73e3cd5fbb42dd675baadf627720e687bcfdaca0250969060ff166200050d5780835260066020526040832082845260205260408320600160ff1982541617905560008051602062002b00833981519152339380a4600190565b50509056fe6080604052600436101561001257600080fd5b60003560e01c8062629679146119c357806301ffc9a71461193b5780630618a69b1461187f5780630647593f146117ab57806306fdde0314611700578063081812fc146116c2578063095ea7b3146116a957806323b872dd14611692578063248a9ca314611663578063273389bb1461163a5780632f2ff15d146115fb5780633068bffd146115d2578063316d21b9146115af57806336568abe1461156857806342842e0e1461153a57806347fe464d1461146f5780636352211e1461143f57806363a4feb11461118857806370a08231146113e657806377328e38146113bd578063794d38501461139457806382afd23b1461136c57806386a501371461134357806391d14854146112f657806395d89b4114611213578063a217fddf146111f7578063a22cb465146111c2578063a6e98e3914611188578063b88d4fde1461111d578063bfaab51614611018578063c87b56dd14610fc1578063ce3375d514610d4d578063d391014b14610d12578063d547741f14610cd1578063e8b439d6146103bc578063e985e9c5146103665763f08f4f64146101b257600080fd5b3461036157602080600319360112610361576040516004356101d382611a9c565b6000825260609081848401528160408401528180840152608083016000905260a083016000905260c083016000905260e0830160009052610100809301600090528060005260028452600160a01b6001900360406000205416151561023790611e38565b600052600883526040600020916040519261025184611a9c565b8054845261026160018201611bad565b8486019081529161027460028301611bad565b604086019081529261028860038401611bad565b9285870193845260040154926001600160401b03608088019681861688528160a08a0191818860401c16835260c08b01948860801c60ff161515865260e08c01968960881c60ff168852888d019960901c60ff1615158a526040518e819f9e829f83525191015251996101209a8d8c60408201526101400161030991611a27565b9051908d601f1994858284030191015261032291611a27565b9051918c82030160808d015261033791611a27565b98511660a08a0152511660c088015251151560e08701525160ff1690850152511515908301520390f35b600080fd5b346103615760403660031901126103615761037f6119ec565b610387611a02565b9060018060a01b03809116600052600560205260406000209116600052602052602060ff604060002054166040519015158152f35b3461036157610120366003190112610361576103d66119ec565b6044356001600160401b038111610361576103f5903690600401611b46565b91906064356001600160401b03811161036157610416903690600401611b46565b906084356001600160401b03811161036157610436903690600401611b46565b9060a435906001600160401b03821682036103615760c435926001600160401b03841684036103615760e43594851515860361036157610104359660ff881688036103615761048361201f565b6001600160a01b038a16600090815260096020526040902054610cb0576001600160401b0385166001600160401b03871611801590610c77575b610c6557600754986000198a14610c4f5760018a016007556040516104e181611ab8565b600081526001600160a01b038c1615610c365760008b8152600260205260409020546001600160a01b0316151580610c2e575b610c1c5760008b8152600260205260409020546001600160a01b031680610be2575b6001600160a01b038d166000818152600360209081526040808320805460010190558f83526002909152812080546001600160a01b031916831790558d919083907fddf252ad1be2c89b69c2b068fc378daa952ba7f163c4a11628f55a4df523b3ef9080a4610bc9578b3b610a89575b506040519b6105b48d611a9c565b6024358d5236906105c492611b0f565b60208c015236906105d492611b0f565b60408a015236906105e492611b0f565b60608801526001600160401b031660808701526001600160401b031660a0860152151560c085015260ff1660e08401526101008301600090528060005260086020526040600020928051845560208101518051906001600160401b038211610922576106536001870154611b73565b601f8111610a54575b50602090601f83116001146109e65761068e929160009183610938575b50508160011b916000199060031b1c19161790565b60018501555b60408101518051906001600160401b038211610922576106b76002870154611b73565b601f81116109b1575b50602090601f8311600114610943576106f19291600091836109385750508160011b916000199060031b1c19161790565b60028501555b60608101519384516001600160401b0381116109225760209561071d6003840154611b73565b601f81116108e4575b508690601f831160011461086c5792610761836101009460049461081698976000926108615750508160011b916000199060031b1c19161790565b60038201555b01916001600160401b036080820151166001600160401b03198454161783556107c06001600160401b0360a083015116849067ffffffffffffffff60401b82549160401b169067ffffffffffffffff60401b1916179055565b60c0810151835460ff60801b191690151560801b60ff60801b1617835560e0810151835460ff60881b191660889190911b60ff60881b161783550151815460ff60901b191690151560901b60ff60901b16179055565b6001600160a01b039190911660008181526009845260408082208490555192919082907f9020690fbcdb982f77cbe8dc09b41a0ee3ca6a588ea48e266a81c565cff9d38b9080a38152f35b015190508b80610679565b9060038401600052876000209160005b601f19851681106108cd57508360049361081697969360019361010097601f198116106108b4575b505050811b016003820155610767565b015160001960f88460031b161c191690558a80806108a4565b91928960018192868501518155019401920161087c565b610912906003850160005288600020601f850160051c8101918a8610610918575b601f0160051c0190611f45565b87610726565b9091508190610905565b634e487b7160e01b600052604160045260246000fd5b015190508780610679565b90601f198316916002880160005260206000209260005b8181106109995750908460019594939210610980575b505050811b0160028501556106f7565b015160001960f88460031b161c19169055868080610970565b9293602060018192878601518155019501930161095a565b6109e090600288016000526020600020601f850160051c8101916020861061091857601f0160051c0190611f45565b866106c0565b90601f198316916001880160005260206000209260005b818110610a3c5750908460019594939210610a23575b505050811b016001850155610694565b015160001960f88460031b161c19169055868080610a13565b929360206001819287860151815501950193016109fd565b610a8390600188016000526020600020601f850160051c8101916020861061091857601f0160051c0190611f45565b8661065c565b6020610ac8918d8d6000604051809681958294630a85bd0160e11b84523360048501528460248501526044840152608060648401526084830190611a27565b03926001600160a01b03165af160009181610b84575b50610b46578b3d15610b3e573d90610af582611af4565b91610b036040519384611ad3565b82523d6000602084013e5b81519182610b3757604051633250574960e11b81526001600160a01b0383166004820152602490fd5b6020915001fd5b606090610b0e565b6001600160e01b03191663757a42ff60e11b01610b63578c6105a6565b604051633250574960e11b81526001600160a01b038c166004820152602490fd5b9091506020813d602011610bc1575b81610ba060209383611ad3565b8101031261036157516001600160e01b03198116810361036157908e610ade565b3d9150610b93565b6040516339e3563760e11b815260006004820152602490fd5b600460205260406000206bffffffffffffffffffffffff60a01b815416905580600052600360205260406000206000198154019055610536565b604051639cbe235760e01b8152600490fd5b506001610514565b604051633250574960e11b815260006004820152602490fd5b634e487b7160e01b600052601160045260246000fd5b60405163b11cd48160e01b8152600490fd5b506001600160401b0385166001600160401b038716036001600160401b038111610c4f576001600160401b036301e133809116116104bd565b604051638027849760e01b81526001600160a01b038b166004820152602490fd5b3461036157604036600319011261036157610d10600435610cf0611a02565b90806000526006602052610d0b600160406000200154612069565b6121b6565b005b346103615760003660031901126103615760206040517f2172861495e7b85edac73e3cd5fbb42dd675baadf627720e687bcfdaca0250968152f35b346103615760208060031936011261036157600435610d6b8161222d565b917f2172861495e7b85edac73e3cd5fbb42dd675baadf627720e687bcfdaca02509660005260068152604060002033600052815260ff604060002054168015610f91575b1580610f7e575b610f495760008281526002825260409020546001600160a01b03908116151580610f41575b610c1c5782600052600282528060406000205416801590811580610f13575b6000868152600286526040812080546001600160a01b03191690558690837fddf252ad1be2c89b69c2b068fc378daa952ba7f163c4a11628f55a4df523b3ef8280a480610efd575b610ee9575b50610ed057600892931660005260098152604060002083815414610ec6575b5082600052526000600460408220828155610e8360018201611f5c565b610e8f60028201611f5c565b610e9b60038201611f5c565b015533907f245fb0804fe7f77b540635ac247abb32ed516166817ef35d54168f833fd63f35600080a3005b6000905583610e66565b604051637e27328960e01b815260048101849052602490fd5b600052600983526000604081205585610e47565b5080600052600984528460406000205414610e42565b600485526040600081812080546001600160a01b031916905583815260038752208054600019019055610dfa565b506000610ddb565b60405162461bcd60e51b815260206004820152600d60248201526c1058d8d95cdcc819195b9a5959609a1b6044820152606490fd5b50336001600160a01b0384161415610db6565b5060008051602061259883398151915260005260068152604060002033600052815260ff60406000205416610daf565b3461036157602036600319011261036157610fdd60043561222d565b506000604051610fec81611ab8565b52611014604051610ffc81611ab8565b60008152604051918291602083526020830190611a27565b0390f35b34610361576040366003190112610361576004356024359060ff821691828103610361578160005260206002815261105e60018060a01b03604060002054161515611e38565b60008051602061259883398151915260005260068152604060002033600052815260ff6040600020541615806110ec575b610f495760008381526008825260409020600401805460ff60881b191660889390931b60ff60881b16929092179091557f7dd86aa49d0f73e8eb396eea99648ca985d58b08392ca231eba14c64ffba1e8f906040519384523393a3005b5060008051602061257883398151915260005260068152604060002033600052815260ff604060002054161561108f565b34610361576080366003190112610361576111366119ec565b61113e611a02565b90604435606435926001600160401b038411610361573660238501121561036157611176610d10943690602481600401359101611b0f565b92611182838383611c52565b33612409565b34610361576020366003190112610361576001600160a01b036111a96119ec565b1660005260096020526020604060002054604051908152f35b34610361576040366003190112610361576111db6119ec565b506111e4611a18565b50604051639cbe235760e01b8152600490fd5b3461036157600036600319011261036157602060405160008152f35b346103615760003660031901126103615760405160006001826001549261123984611b73565b92838352602094856001821691826000146112d6575050600114611279575b5061126592500383611ad3565b611014604051928284938452830190611a27565b84915060016000527fb10e2d527612073b26eecdfd717e6a320cf44b4afac2b0732d9fcbe2b7fa0cf6906000915b8583106112be575050611265935082010185611258565b805483890185015287945086939092019181016112a7565b60ff19168582015261126595151560051b85010192508791506112589050565b346103615760403660031901126103615761130f611a02565b600435600052600660205260406000209060018060a01b0316600052602052602060ff604060002054166040519015158152f35b346103615760003660031901126103615760206040516000805160206125788339815191528152f35b3461036157602036600319011261036157602061138a600435611e76565b6040519015158152f35b346103615760003660031901126103615760206040516000805160206125988339815191528152f35b3461036157602036600319011261036157610d106113d96119ec565b6113e1611fa5565b612304565b34610361576020366003190112610361576001600160a01b036114076119ec565b1680156114265760005260036020526020604060002054604051908152f35b6040516322718ad960e21b815260006004820152602490fd5b3461036157602036600319011261036157602061145d60043561222d565b6040516001600160a01b039091168152f35b3461036157604036600319011261036157600435602435906001600160401b0380831692838103610361576114a261201f565b6000838152600260205260409020546114c5906001600160a01b03161515611e38565b826000526008602052600460406000200191825416841115610c655781546fffffffffffffffff0000000000000000191660409190911b67ffffffffffffffff60401b161790556040519182527ff82d5d539c619378c21cfd3ddea63992ead4f1e7c62fa2aa9e7ddeb98f876c8360203393a3005b3461036157610d1061154b36611a67565b906040519261155984611ab8565b60008452611182838383611c52565b3461036157604036600319011261036157611581611a02565b336001600160a01b0382160361159d57610d10906004356121b6565b60405163334bd91960e11b8152600490fd5b3461036157602036600319011261036157602061138a6115cd6119ec565b611e08565b3461036157602036600319011261036157610d106115ee6119ec565b6115f6611fa5565b612268565b3461036157604036600319011261036157610d1060043561161a611a02565b90806000526006602052611635600160406000200154612069565b61238e565b3461036157602036600319011261036157610d106116566119ec565b61165e611fa5565b61212e565b346103615760203660031901126103615760043560005260066020526020600160406000200154604051908152f35b3461036157610d106116a336611a67565b91611c52565b34610361576040366003190112610361576111e46119ec565b34610361576020366003190112610361576004356116df8161222d565b506000526004602052602060018060a01b0360406000205416604051908152f35b346103615760003660031901126103615760405160008054908261172383611b73565b91828252602093600190856001821691826000146112d6575050600114611751575061126592500383611ad3565b6000808052859250907f290decd9548b62a8d60345a988386fc84ba6bc95484008f6362f93160ef3e5635b858310611793575050611265935082010185611258565b8054838901850152879450869390920191810161177c565b34610361576040366003190112610361576004356117c7611a18565b906117d18161222d565b6001600160a01b031633141580611858575b611840576000818152600860205260409020600401805460ff60801b191683151560801b60ff60801b1617905560405191151582527f1152126dac87d6b12a01466310a21ca9ea53085d01740ae71de0758837e8dc4760203393a3005b604051635b9d0f5f60e01b8152336004820152602490fd5b50336000908152600080516020612558833981519152602052604090205460ff16156117e3565b346103615760403660031901126103615760043561189b611a18565b906118a58161222d565b6001600160a01b031633141580611914575b611840576000818152600860205260409020600401805460ff60901b191683151560901b60ff60901b1617905560405191151582527f795d22567154f17942cd53bbfc965865778f6823ce9e1e6deda17c664d383c4660203393a3005b50336000908152600080516020612558833981519152602052604090205460ff16156118b7565b346103615760203660031901126103615760043563ffffffff60e01b811680910361036157602090637965db0b60e01b8114908115611980575b506040519015158152f35b6380ac58cd60e01b8114915081156119b2575b81156119a1575b5082611975565b6301ffc9a760e01b1490508261199a565b635b5e139f60e01b81149150611993565b3461036157602036600319011261036157610d106119df6119ec565b6119e7611fa5565b61208f565b600435906001600160a01b038216820361036157565b602435906001600160a01b038216820361036157565b60243590811515820361036157565b919082519283825260005b848110611a53575050826000602080949584010152601f8019910116010190565b602081830181015184830182015201611a32565b6060906003190112610361576001600160a01b0390600435828116810361036157916024359081168103610361579060443590565b61012081019081106001600160401b0382111761092257604052565b602081019081106001600160401b0382111761092257604052565b90601f801991011681019081106001600160401b0382111761092257604052565b6001600160401b03811161092257601f01601f191660200190565b929192611b1b82611af4565b91611b296040519384611ad3565b829481845281830111610361578281602093846000960137010152565b9181601f84011215610361578235916001600160401b038311610361576020838186019501011161036157565b90600182811c92168015611ba3575b6020831014611b8d57565b634e487b7160e01b600052602260045260246000fd5b91607f1691611b82565b90604051918260008254611bc081611b73565b90818452602094600191600181169081600014611c305750600114611bf1575b505050611bef92500383611ad3565b565b600090815285812095935091905b818310611c18575050611bef9350820101388080611be0565b85548884018501529485019487945091830191611bff565b92505050611bef94925060ff191682840152151560051b820101388080611be0565b6001600160a01b039182169290918315610c365760009282845260209460028652604095838787205416151580611e00575b611def579084918287526002815284888820541696879133151580611d59575b509060027fddf252ad1be2c89b69c2b068fc378daa952ba7f163c4a11628f55a4df523b3ef9284611d2a575b858352600381528b8320805460010190558683525289812080546001600160a01b0319168517905580a41692838303611d095750505050565b6064945051926364283d7b60e01b8452600484015260248301526044820152fd5b868352600481528b832080546001600160a01b0319169055848352600381528b83208054600019019055611cd0565b91939450915080611dae575b15611d7557859291879138611ca4565b878688611d92576024915190637e27328960e01b82526004820152fd5b604491519063177e802f60e01b82523360048301526024820152fd5b503387148015611dd3575b80611d655750858252600481523385898420541614611d65565b5086825260058152878220338352815260ff8883205416611db9565b8651639cbe235760e01b8152600490fd5b506001611c84565b6001600160a01b03166000908152600960205260409020548015611e3257611e2f90611e76565b90565b50600090565b15611e3f57565b60405162461bcd60e51b815260206004820152600f60248201526e125b9d985b1a59081d1bdad95b9259608a1b6044820152606490fd5b6000908152600260205260409020546001600160a01b031615611f405760086020526040600020600460405191611eac83611a9c565b80548352611ebc60018201611bad565b6020840152611ecd60028201611bad565b6040840152611ede60038201611bad565b60608401520154906001600160401b039061010060ff838516938460808501528560401c16948560a0850152818160801c16151560c0850152818160881c1660e085015260901c1615159101524210159081611f38575090565b905042111590565b600090565b818110611f50575050565b60008155600101611f45565b611f668154611b73565b9081611f70575050565b81601f60009311600114611f82575055565b908083918252611fa1601f60208420940160051c840160018501611f45565b5555565b3360009081527f94fdc7a45360f568054dff4fd08a1be79188f5f51f010270910b0659487f710860205260409020547f2172861495e7b85edac73e3cd5fbb42dd675baadf627720e687bcfdaca0250969060ff16156120015750565b6044906040519063e2517d3f60e01b82523360048301526024820152fd5b3360009081527fa6748b625e6483bc8ac5cc5eb2351b2dfe214a910918c8acbff99f8f4098f28c60205260409020546000805160206125988339815191529060ff16156120015750565b80600052600660205260406000203360005260205260ff60406000205416156120015750565b6001600160a01b031660008181527fa6748b625e6483bc8ac5cc5eb2351b2dfe214a910918c8acbff99f8f4098f28c60205260408120549091906000805160206125988339815191529060ff1615612129578083526006602052604083208284526020526040832060ff1981541690557ff6391f5c32d9c69d2a47ea670b442974b53935d1edc7fd64eb21e047a839171b339380a4600190565b505090565b6001600160a01b0316600081815260008051602061255883398151915260205260408120549091906000805160206125788339815191529060ff1615612129578083526006602052604083208284526020526040832060ff1981541690557ff6391f5c32d9c69d2a47ea670b442974b53935d1edc7fd64eb21e047a839171b339380a4600190565b906000918083526006602052604083209160018060a01b03169182845260205260ff604084205416600014612129578083526006602052604083208284526020526040832060ff1981541690557ff6391f5c32d9c69d2a47ea670b442974b53935d1edc7fd64eb21e047a839171b339380a4600190565b6000818152600260205260409020546001600160a01b0316908115612250575090565b60249060405190637e27328960e01b82526004820152fd5b6001600160a01b031660008181527fa6748b625e6483bc8ac5cc5eb2351b2dfe214a910918c8acbff99f8f4098f28c60205260408120549091906000805160206125988339815191529060ff166121295780835260066020526040832082845260205260408320600160ff198254161790557f2f8788117e7eff1d82e926ec794901d17c78024a50270940304540a733656f0d339380a4600190565b6001600160a01b0316600081815260008051602061255883398151915260205260408120549091906000805160206125788339815191529060ff166121295780835260066020526040832082845260205260408320600160ff198254161790557f2f8788117e7eff1d82e926ec794901d17c78024a50270940304540a733656f0d339380a4600190565b906000918083526006602052604083209160018060a01b03169182845260205260ff604084205416156000146121295780835260066020526040832082845260205260408320600160ff198254161790557f2f8788117e7eff1d82e926ec794901d17c78024a50270940304540a733656f0d339380a4600190565b90939192833b61241b575b5050505050565b604051630a85bd0160e11b8082526001600160a01b039384166004830152958316602482015260448101919091526080606482015294921692602092918590612468906084830190611a27565b039483816000978189895af1869181612513575b506124dd575050503d6000146124d4573d61249681611af4565b906124a46040519283611ad3565b81528093823d92013e5b825192836124cf57604051633250574960e11b815260048101849052602490fd5b019050fd5b606092506124ae565b919450915063ffffffff60e01b16036124fb57503880808080612414565b60249060405190633250574960e11b82526004820152fd5b9091508481813d8311612550575b61252b8183611ad3565b8101031261254c57516001600160e01b03198116810361254c57903861247c565b8680fd5b503d61252156fe42eb9c438747b0bf874f04d46d1bc49e6c61422660efb64905c169900375b490037a85a5009099c5c520ed6ba1a9716432f123547e6790a9e051f560a5ebe4afb5f4ba1c5fe0704bb1c4399e6baa562444b507b8daf8d7c95ffa2d49b06b442ca26469706673582212202df86fbed0178e31d687ed2a93304e12f9f8c12462d8a6437623cb0445ea26b464736f6c634300081800332f8788117e7eff1d82e926ec794901d17c78024a50270940304540a733656f0d",
  "linkReferences": {},
  "deployedLinkReferences": {}
}