{"contracts/TouristIDRegistry.sol":{"TouristIDRegistry":{"abi":[{"inputs":[{"internalType":"address","name":"admin","type":"address"},{"internalType":"string","name":"name_","type":"string"},{"internalType":"string","name":"symbol_","type":"string"}],"stateMutability":"nonpayable","type":"constructor"},{"inputs":[],"name":"AccessControlBadConfirmation","type":"error"},{"inputs":[{"internalType":"address","name":"account","type":"address"},{"internalType":"bytes32","name":"neededRole","type":"bytes32"}],"name":"AccessControlUnauthorizedAccount","type":"error"},{"inputs":[{"internalType":"address","name":"holder","type":"address"}],"name":"AlreadyHasActiveId","type":"error"},{"inputs":[{"internalType":"address","name":"sender","type":"address"},{"internalType":"uint256","name":"tokenId","type":"uint256"},{"internalType":"address","name":"owner","type":"address"}],"name":"ERC721IncorrectOwner","type":"error"},{"inputs":[{"internalType":"address","name":"operator","type":"address"},{"internalType":"uint256","name":"tokenId","type":"uint256"}],"name":"ERC721InsufficientApproval","type":"error"},{"inputs":[{"internalType":"address","name":"approver","type":"address"}],"name":"ERC721InvalidApprover","type":"error"},{"inputs":[{"internalType":"address","name":"operator","type":"address"}],"name":"ERC721InvalidOperator","type":"error"},{"inputs":[{"internalType":"address","name":"owner","type":"address"}],"name":"ERC721InvalidOwner","type":"error"},{"inputs":[{"internalType":"address","name":"receiver","type":"address"}],"name":"ERC721InvalidReceiver","type":"error"},{"inputs":[{"internalType":"address","name":"sender","type":"address"}],"name":"ERC721InvalidSender","type":"error"},{"inputs":[{"internalType":"uint256","name":"tokenId","type":"uint256"}],"name":"ERC721NonexistentToken","type":"error"},{"inputs":[],"name":"InvalidTimeWindow","type":"error"},{"inputs":[],"name":"NonTransferable","type":"error"},{"inputs":[{"internalType":"uint256","name":"tokenId","type":"uint256"}],"name":"NotActiveOrExpired","type":"error"},{"inputs":[{"internalType":"address","name":"caller","type":"address"}],"name":"NotTokenHolder","type":"error"},{"anonymous":false,"inputs":[{"indexed":true,"internalType":"address","name":"owner","type":"address"},{"indexed":true,"internalType":"address","name":"approved","type":"address"},{"indexed":true,"internalType":"uint256","name":"tokenId","type":"uint256"}],"name":"Approval","type":"event"},{"anonymous":false,"inputs":[{"indexed":true,"internalType":"address","name":"owner","type":"address"},{"indexed":true,"internalType":"address","name":"operator","type":"address"},{"indexed":false,"internalType":"bool","name":"approved","type":"bool"}],"name":"ApprovalForAll","type":"event"},{"anonymous":false,"inputs":[{"indexed":true,"internalType":"uint256","name":"tokenId","type":"uint256"},{"indexed":false,"internalType":"bool","name":"isPanic","type":"bool"},{"indexed":true,"internalType":"address","name":"by","type":"address"}],"name":"PanicStateSet","type":"event"},{"anonymous":false,"inputs":[{"indexed":true,"internalType":"bytes32","name":"role","type":"bytes32"},{"indexed":true,"internalType":"bytes32","name":"previousAdminRole","type":"bytes32"},{"indexed":true,"internalType":"bytes32","name":"newAdminRole","type":"bytes32"}],"name":"RoleAdminChanged","type":"event"},{"anonymous":false,"inputs":[{"indexed":true,"internalType":"bytes32","name":"role","type":"bytes32"},{"indexed":true,"internalType":"address","name":"account","type":"address"},{"indexed":true,"internalType":"address","name":"sender","type":"address"}],"name":"RoleGranted","type":"event"},{"anonymous":false,"inputs":[{"indexed":true,"internalType":"bytes32","name":"role","type":"bytes32"},{"indexed":true,"internalType":"address","name":"account","type":"address"},{"indexed":true,"internalType":"address","name":"sender","type":"address"}],"name":"RoleRevoked","type":"event"},{"anonymous":false,"inputs":[{"indexed":true,"internalType":"uint256","name":"tokenId","type":"uint256"},{"indexed":false,"internalType":"uint8","name":"score","type":"uint8"},{"indexed":true,"internalType":"address","name":"by","type":"address"}],"name":"SafetyScoreUpdated","type":"event"},{"anonymous":false,"inputs":[{"indexed":true,"internalType":"uint256","name":"tokenId","type":"uint256"},{"indexed":true,"internalType":"address","name":"to","type":"address"}],"name":"TouristIssued","type":"event"},{"anonymous":false,"inputs":[{"indexed":true,"internalType":"uint256","name":"tokenId","type":"uint256"},{"indexed":true,"internalType":"address","name":"by","type":"address"}],"name":"TouristRevoked","type":"event"},{"anonymous":false,"inputs":[{"indexed":true,"internalType":"uint256","name":"tokenId","type":"uint256"},{"indexed":false,"internalType":"bool","name":"optedIn","type":"bool"},{"indexed":true,"internalType":"address","name":"by","type":"address"}],"name":"TrackingOptInSet","type":"event"},{"anonymous":false,"inputs":[{"indexed":true,"internalType":"address","name":"from","type":"address"},{"indexed":true,"internalType":"address","name":"to","type":"address"},{"indexed":true,"internalType":"uint256","name":"tokenId","type":"uint256"}],"name":"Transfer","type":"event"},{"anonymous":false,"inputs":[{"indexed":true,"internalType":"uint256","name":"tokenId","type":"uint256"},{"indexed":false,"internalType":"uint64","name":"validUntil","type":"uint64"},{"indexed":true,"internalType":"address","name":"by","type":"address"}],"name":"ValidityExtended","type":"event"},{"inputs":[],"name":"DEFAULT_ADMIN_ROLE","outputs":[{"internalType":"bytes32","name":"","type":"bytes32"}],"stateMutability":"view","type":"function"},{"inputs":[],"name":"ROLE_ADMIN","outputs":[{"internalType":"bytes32","name":"","type":"bytes32"}],"stateMutability":"view","type":"function"},{"inputs":[],"name":"ROLE_ISSUER","outputs":[{"internalType":"bytes32","name":"","type":"bytes32"}],"stateMutability":"view","type":"function"},{"inputs":[],"name":"ROLE_RESPONDER","outputs":[{"internalType":"bytes32","name":"","type":"bytes32"}],"stateMutability":"view","type":"function"},{"inputs":[{"internalType":"address","name":"","type":"address"}],"name":"activeTokenOf","outputs":[{"internalType":"uint256","name":"","type":"uint256"}],"stateMutability":"view","type":"function"},{"inputs":[{"internalType":"address","name":"to","type":"address"},{"internalType":"uint256","name":"tokenId","type":"uint256"}],"name":"approve","outputs":[],"stateMutability":"nonpayable","type":"function"},{"inputs":[{"internalType":"address","name":"owner","type":"address"}],"name":"balanceOf","outputs":[{"internalType":"uint256","name":"","type":"uint256"}],"stateMutability":"view","type":"function"},{"inputs":[{"internalType":"uint256","name":"tokenId","type":"uint256"},{"internalType":"uint64","name":"newValidUntil","type":"uint64"}],"name":"extendValidity","outputs":[],"stateMutability":"nonpayable","type":"function"},{"inputs":[{"internalType":"address","name":"holder","type":"address"}],"name":"getActiveTokenId","outputs":[{"internalType":"uint256","name":"","type":"uint256"}],"stateMutability":"view","type":"function"},{"inputs":[{"internalType":"uint256","name":"tokenId","type":"uint256"}],"name":"getApproved","outputs":[{"internalType":"address","name":"","type":"address"}],"stateMutability":"view","type":"function"},{"inputs":[{"internalType":"uint256","name":"tokenId","type":"uint256"}],"name":"getProfile","outputs":[{"components":[{"internalType":"bytes32","name":"kycHash","type":"bytes32"},{"internalType":"string","name":"itinerary","type":"string"},{"internalType":"string","name":"emergencyContact","type":"string"},{"internalType":"string","name":"homeCountry","type":"string"},{"internalType":"uint64","name":"validFrom","type":"uint64"},{"internalType":"uint64","name":"validUntil","type":"uint64"},{"internalType":"bool","name":"optedInTracking","type":"bool"},{"internalType":"uint8","name":"safetyScore","type":"uint8"},{"internalType":"bool","name":"isPanic","type":"bool"}],"internalType":"struct TouristIDRegistry.TouristProfile","name":"","type":"tuple"}],"stateMutability":"view","type":"function"},{"inputs":[{"internalType":"bytes32","name":"role","type":"bytes32"}],"name":"getRoleAdmin","outputs":[{"internalType":"bytes32","name":"","type":"bytes32"}],"stateMutability":"view","type":"function"},{"inputs":[{"internalType":"address","name":"account","type":"address"}],"name":"grantIssuer","outputs":[],"stateMutability":"nonpayable","type":"function"},{"inputs":[{"internalType":"address","name":"account","type":"address"}],"name":"grantResponder","outputs":[],"stateMutability":"nonpayable","type":"function"},{"inputs":[{"internalType":"bytes32","name":"role","type":"bytes32"},{"internalType":"address","name":"account","type":"address"}],"name":"grantRole","outputs":[],"stateMutability":"nonpayable","type":"function"},{"inputs":[{"internalType":"bytes32","name":"role","type":"bytes32"},{"internalType":"address","name":"account","type":"address"}],"name":"hasRole","outputs":[{"internalType":"bool","name":"","type":"bool"}],"stateMutability":"view","type":"function"},{"inputs":[{"internalType":"uint256","name":"tokenId","type":"uint256"}],"name":"isActive","outputs":[{"internalType":"bool","name":"","type":"bool"}],"stateMutability":"view","type":"function"},{"inputs":[{"internalType":"address","name":"owner","type":"address"},{"internalType":"address","name":"operator","type":"address"}],"name":"isApprovedForAll","outputs":[{"internalType":"bool","name":"","type":"bool"}],"stateMutability":"view","type":"function"},{"inputs":[{"internalType":"address","name":"to","type":"address"},{"internalType":"bytes32","name":"kycHash","type":"bytes32"},{"internalType":"string","name":"itinerary","type":"string"},{"internalType":"string","name":"emergencyContact","type":"string"},{"internalType":"string","name":"homeCountry","type":"string"},{"internalType":"uint64","name":"validFrom","type":"uint64"},{"internalType":"uint64","name":"validUntil","type":"uint64"},{"internalType":"bool","name":"optedInTracking","type":"bool"},{"internalType":"uint8","name":"initialSafetyScore","type":"uint8"}],"name":"issueID","outputs":[{"internalType":"uint256","name":"tokenId","type":"uint256"}],"stateMutability":"nonpayable","type":"function"},{"inputs":[],"name":"name","outputs":[{"internalType":"string","name":"","type":"string"}],"stateMutability":"view","type":"function"},{"inputs":[{"internalType":"uint256","name":"tokenId","type":"uint256"}],"name":"ownerOf","outputs":[{"internalType":"address","name":"","type":"address"}],"stateMutability":"view","type":"function"},{"inputs":[{"internalType":"bytes32","name":"role","type":"bytes32"},{"internalType":"address","name":"callerConfirmation","type":"address"}],"name":"renounceRole","outputs":[],"stateMutability":"nonpayable","type":"function"},{"inputs":[{"internalType":"uint256","name":"tokenId","type":"uint256"}],"name":"revokeID","outputs":[],"stateMutability":"nonpayable","type":"function"},{"inputs":[{"internalType":"address","name":"account","type":"address"}],"name":"revokeIssuer","outputs":[],"stateMutability":"nonpayable","type":"function"},{"inputs":[{"internalType":"address","name":"account","type":"address"}],"name":"revokeResponder","outputs":[],"stateMutability":"nonpayable","type":"function"},{"inputs":[{"internalType":"bytes32","name":"role","type":"bytes32"},{"internalType":"address","name":"account","type":"address"}],"name":"revokeRole","outputs":[],"stateMutability":"nonpayable","type":"function"},{"inputs":[{"internalType":"address","name":"from","type":"address"},{"internalType":"address","name":"to","type":"address"},{"internalType":"uint256","name":"tokenId","type":"uint256"}],"name":"safeTransferFrom","outputs":[],"stateMutability":"nonpayable","type":"function"},{"inputs":[{"internalType":"address","name":"from","type":"address"},{"internalType":"address","name":"to","type":"address"},{"internalType":"uint256","name":"tokenId","type":"uint256"},{"internalType":"bytes","name":"data","type":"bytes"}],"name":"safeTransferFrom","outputs":[],"stateMutability":"nonpayable","type":"function"},{"inputs":[{"internalType":"address","name":"operator","type":"address"},{"internalType":"bool","name":"approved","type":"bool"}],"name":"setApprovalForAll","outputs":[],"stateMutability":"nonpayable","type":"function"},{"inputs":[{"internalType":"uint256","name":"tokenId","type":"uint256"},{"internalType":"bool","name":"isPanic_","type":"bool"}],"name":"setPanic","outputs":[],"stateMutability":"nonpayable","type":"function"},{"inputs":[{"internalType":"uint256","name":"tokenId","type":"uint256"},{"internalType":"bool","name":"optedIn","type":"bool"}],"name":"setTrackingOptIn","outputs":[],"stateMutability":"nonpayable","type":"function"},{"inputs":[{"internalType":"bytes4","name":"interfaceId","type":"bytes4"}],"name":"supportsInterface","outputs":[{"internalType":"bool","name":"","type":"bool"}],"stateMutability":"view","type":"function"},{"inputs":[],"name":"symbol","outputs":[{"internalType":"string","name":"","type":"string"}],"stateMutability":"view","type":"function"},{"inputs":[{"internalType":"uint256","name":"tokenId","type":"uint256"}],"name":"tokenURI","outputs":[{"internalType":"string","name":"","type":"string"}],"stateMutability":"view","type":"function"},{"inputs":[{"internalType":"address","name":"from","type":"address"},{"internalType":"address","name":"to","type":"address"},{"internalType":"uint256","name":"tokenId","type":"uint256"}],"name":"transferFrom","outputs":[],"stateMutability":"nonpayable","type":"function"},{"inputs":[{"internalType":"uint256","name":"tokenId","type":"uint256"},{"internalType":"uint8","name":"newScore","type":"uint8"}],"name":"updateSafetyScore","outputs":[],"stateMutability":"nonpayable","type":"function"},{"inputs":[{"internalType":"address","name":"holder","type":"address"}],"name":"verifyAddressActive","outputs":[{"internalType":"bool","name":"","type":"bool"}],"stateMutability":"view","type":"function"}],"evm":{"bytecode":{"linkReferences":{},"object":"608060405234620003515762002b20803803806200001d8162000356565b928339810160608282031262000351578151906001600160a01b0382168203620003515760208381015190936001600160401b0391828111620003515783620000689183016200037c565b92604082015183811162000351576200008292016200037c565b8251908282116200033b576000958654926001958685811c9516801562000330575b838610146200031c578190601f95868111620002c9575b50839086831160011462000265578a9262000259575b5050600019600383901b1c191690861b1787555b8151938411620002455784548581811c911680156200023a575b828210146200022657838111620001de575b5080928411600114620001735750620001569591908362000167575b5050600019600383901b1c191690821b1781555b6007556200014f81620003ee565b506200046f565b506040516125ed9081620005138239f35b0151905038806200012d565b8487528087209396601f198816915b828210620001c6575050918493918762000156989410620001ac575b505050811b01815562000141565b015160001960f88460031b161c191690553880806200019e565b80878697829497870151815501960194019062000182565b8588528188208480870160051c8201928488106200021c575b0160051c019086905b8281106200021057505062000111565b89815501869062000200565b92508192620001f7565b634e487b7160e01b88526022600452602488fd5b90607f1690620000ff565b634e487b7160e01b87526041600452602487fd5b015190503880620000d1565b8a8052848b208994509190601f1984168c5b87828210620002b2575050841162000298575b505050811b018755620000e5565b015160001960f88460031b161c191690553880806200028a565b8385015186558c9790950194938401930162000277565b909150898052838a208680850160051c82019286861062000312575b918a91869594930160051c01915b82811062000303575050620000bb565b8c81558594508a9101620002f3565b92508192620002e5565b634e487b7160e01b89526022600452602489fd5b94607f1694620000a4565b634e487b7160e01b600052604160045260246000fd5b600080fd5b6040519190601f01601f191682016001600160401b038111838210176200033b57604052565b919080601f84011215620003515782516001600160401b0381116200033b57602090620003b2601f8201601f1916830162000356565b92818452828287010111620003515760005b818110620003da57508260009394955001015290565b8581018301518482018401528201620003c4565b6001600160a01b031660008181527f54cdd369e4e8a8515e52ca72ec816c2101831ad1f18bf44102ed171459c9b4f8602052604081205490919060ff166200046b5781805260066020526040822081835260205260408220600160ff19825416179055339160008051602062002b008339815191528180a4600190565b5090565b6001600160a01b031660008181527f94fdc7a45360f568054dff4fd08a1be79188f5f51f010270910b0659487f710860205260408120549091907f2172861495e7b85edac73e3cd5fbb42dd675baadf627720e687bcfdaca0250969060ff166200050d5780835260066020526040832082845260205260408320600160ff1982541617905560008051602062002b00833981519152339380a4600190565b50509056fe6080604052600436101561001257600080fd5b60003560e01c8062629679146119c357806301ffc9a71461193b5780630618a69b1461187f5780630647593f146117ab57806306fdde0314611700578063081812fc146116c2578063095ea7b3146116a957806323b872dd14611692578063248a9ca314611663578063273389bb1461163a5780632f2ff15d146115fb5780633068bffd146115d2578063316d21b9146115af57806336568abe1461156857806342842e0e1461153a57806347fe464d1461146f5780636352211e1461143f57806363a4feb11461118857806370a08231146113e657806377328e38146113bd578063794d38501461139457806382afd23b1461136c57806386a501371461134357806391d14854146112f657806395d89b4114611213578063a217fddf146111f7578063a22cb465146111c2578063a6e98e3914611188578063b88d4fde1461111d578063bfaab51614611018578063c87b56dd14610fc1578063ce3375d514610d4d578063d391014b14610d12578063d547741f14610cd1578063e8b439d6146103bc578063e985e9c5146103665763f08f4f64146101b257600080fd5b3461036157602080600319360112610361576040516004356101d382611a9c565b6000825260609081848401528160408401528180840152608083016000905260a083016000905260c083016000905260e0830160009052610100809301600090528060005260028452600160a01b6001900360406000205416151561023790611e38565b600052600883526040600020916040519261025184611a9c565b8054845261026160018201611bad565b8486019081529161027460028301611bad565b604086019081529261028860038401611bad565b9285870193845260040154926001600160401b03608088019681861688528160a08a0191818860401c16835260c08b01948860801c60ff161515865260e08c01968960881c60ff168852888d019960901c60ff1615158a526040518e819f9e829f83525191015251996101209a8d8c60408201526101400161030991611a27565b9051908d601f1994858284030191015261032291611a27565b9051918c82030160808d015261033791611a27565b98511660a08a0152511660c088015251151560e08701525160ff1690850152511515908301520390f35b600080fd5b346103615760403660031901126103615761037f6119ec565b610387611a02565b9060018060a01b03809116600052600560205260406000209116600052602052602060ff604060002054166040519015158152f35b3461036157610120366003190112610361576103d66119ec565b6044356001600160401b038111610361576103f5903690600401611b46565b91906064356001600160401b03811161036157610416903690600401611b46565b906084356001600160401b03811161036157610436903690600401611b46565b9060a435906001600160401b03821682036103615760c435926001600160401b03841684036103615760e43594851515860361036157610104359660ff881688036103615761048361201f565b6001600160a01b038a16600090815260096020526040902054610cb0576001600160401b0385166001600160401b03871611801590610c77575b610c6557600754986000198a14610c4f5760018a016007556040516104e181611ab8565b600081526001600160a01b038c1615610c365760008b8152600260205260409020546001600160a01b0316151580610c2e575b610c1c5760008b8152600260205260409020546001600160a01b031680610be2575b6001600160a01b038d166000818152600360209081526040808320805460010190558f83526002909152812080546001600160a01b031916831790558d919083907fddf252ad1be2c89b69c2b068fc378daa952ba7f163c4a11628f55a4df523b3ef9080a4610bc9578b3b610a89575b506040519b6105b48d611a9c565b6024358d5236906105c492611b0f565b60208c015236906105d492611b0f565b60408a015236906105e492611b0f565b60608801526001600160401b031660808701526001600160401b031660a0860152151560c085015260ff1660e08401526101008301600090528060005260086020526040600020928051845560208101518051906001600160401b038211610922576106536001870154611b73565b601f8111610a54575b50602090601f83116001146109e65761068e929160009183610938575b50508160011b916000199060031b1c19161790565b60018501555b60408101518051906001600160401b038211610922576106b76002870154611b73565b601f81116109b1575b50602090601f8311600114610943576106f19291600091836109385750508160011b916000199060031b1c19161790565b60028501555b60608101519384516001600160401b0381116109225760209561071d6003840154611b73565b601f81116108e4575b508690601f831160011461086c5792610761836101009460049461081698976000926108615750508160011b916000199060031b1c19161790565b60038201555b01916001600160401b036080820151166001600160401b03198454161783556107c06001600160401b0360a083015116849067ffffffffffffffff60401b82549160401b169067ffffffffffffffff60401b1916179055565b60c0810151835460ff60801b191690151560801b60ff60801b1617835560e0810151835460ff60881b191660889190911b60ff60881b161783550151815460ff60901b191690151560901b60ff60901b16179055565b6001600160a01b039190911660008181526009845260408082208490555192919082907f9020690fbcdb982f77cbe8dc09b41a0ee3ca6a588ea48e266a81c565cff9d38b9080a38152f35b015190508b80610679565b9060038401600052876000209160005b601f19851681106108cd57508360049361081697969360019361010097601f198116106108b4575b505050811b016003820155610767565b015160001960f88460031b161c191690558a80806108a4565b91928960018192868501518155019401920161087c565b610912906003850160005288600020601f850160051c8101918a8610610918575b601f0160051c0190611f45565b87610726565b9091508190610905565b634e487b7160e01b600052604160045260246000fd5b015190508780610679565b90601f198316916002880160005260206000209260005b8181106109995750908460019594939210610980575b505050811b0160028501556106f7565b015160001960f88460031b161c19169055868080610970565b9293602060018192878601518155019501930161095a565b6109e090600288016000526020600020601f850160051c8101916020861061091857601f0160051c0190611f45565b866106c0565b90601f198316916001880160005260206000209260005b818110610a3c5750908460019594939210610a23575b505050811b016001850155610694565b015160001960f88460031b161c19169055868080610a13565b929360206001819287860151815501950193016109fd565b610a8390600188016000526020600020601f850160051c8101916020861061091857601f0160051c0190611f45565b8661065c565b6020610ac8918d8d6000604051809681958294630a85bd0160e11b84523360048501528460248501526044840152608060648401526084830190611a27565b03926001600160a01b03165af160009181610b84575b50610b46578b3d15610b3e573d90610af582611af4565b91610b036040519384611ad3565b82523d6000602084013e5b81519182610b3757604051633250574960e11b81526001600160a01b0383166004820152602490fd5b6020915001fd5b606090610b0e565b6001600160e01b03191663757a42ff60e11b01610b63578c6105a6565b604051633250574960e11b81526001600160a01b038c166004820152602490fd5b9091506020813d602011610bc1575b81610ba060209383611ad3565b8101031261036157516001600160e01b03198116810361036157908e610ade565b3d9150610b93565b6040516339e3563760e11b815260006004820152602490fd5b600460205260406000206bffffffffffffffffffffffff60a01b815416905580600052600360205260406000206000198154019055610536565b604051639cbe235760e01b8152600490fd5b506001610514565b604051633250574960e11b815260006004820152602490fd5b634e487b7160e01b600052601160045260246000fd5b60405163b11cd48160e01b8152600490fd5b506001600160401b0385166001600160401b038716036001600160401b038111610c4f576001600160401b036301e133809116116104bd565b604051638027849760e01b81526001600160a01b038b166004820152602490fd5b3461036157604036600319011261036157610d10600435610cf0611a02565b90806000526006602052610d0b600160406000200154612069565b6121b6565b005b346103615760003660031901126103615760206040517f2172861495e7b85edac73e3cd5fbb42dd675baadf627720e687bcfdaca0250968152f35b346103615760208060031936011261036157600435610d6b8161222d565b917f2172861495e7b85edac73e3cd5fbb42dd675baadf627720e687bcfdaca02509660005260068152604060002033600052815260ff604060002054168015610f91575b1580610f7e575b610f495760008281526002825260409020546001600160a01b03908116151580610f41575b610c1c5782600052600282528060406000205416801590811580610f13575b6000868152600286526040812080546001600160a01b03191690558690837fddf252ad1be2c89b69c2b068fc378daa952ba7f163c4a11628f55a4df523b3ef8280a480610efd575b610ee9575b50610ed057600892931660005260098152604060002083815414610ec6575b5082600052526000600460408220828155610e8360018201611f5c565b610e8f60028201611f5c565b610e9b60038201611f5c565b015533907f245fb0804fe7f77b540635ac247abb32ed516166817ef35d54168f833fd63f35600080a3005b6000905583610e66565b604051637e27328960e01b815260048101849052602490fd5b600052600983526000604081205585610e47565b5080600052600984528460406000205414610e42565b600485526040600081812080546001600160a01b031916905583815260038752208054600019019055610dfa565b506000610ddb565b60405162461bcd60e51b815260206004820152600d60248201526c1058d8d95cdcc819195b9a5959609a1b6044820152606490fd5b50336001600160a01b0384161415610db6565b5060008051602061259883398151915260005260068152604060002033600052815260ff60406000205416610daf565b3461036157602036600319011261036157610fdd60043561222d565b506000604051610fec81611ab8565b52611014604051610ffc81611ab8565b60008152604051918291602083526020830190611a27565b0390f35b34610361576040366003190112610361576004356024359060ff821691828103610361578160005260206002815261105e60018060a01b03604060002054161515611e38565b60008051602061259883398151915260005260068152604060002033600052815260ff6040600020541615806110ec575b610f495760008381526008825260409020600401805460ff60881b191660889390931b60ff60881b16929092179091557f7dd86aa49d0f73e8eb396eea99648ca985d58b08392ca231eba14c64ffba1e8f906040519384523393a3005b5060008051602061257883398151915260005260068152604060002033600052815260ff604060002054161561108f565b34610361576080366003190112610361576111366119ec565b61113e611a02565b90604435606435926001600160401b038411610361573660238501121561036157611176610d10943690602481600401359101611b0f565b92611182838383611c52565b33612409565b34610361576020366003190112610361576001600160a01b036111a96119ec565b1660005260096020526020604060002054604051908152f35b34610361576040366003190112610361576111db6119ec565b506111e4611a18565b50604051639cbe235760e01b8152600490fd5b3461036157600036600319011261036157602060405160008152f35b346103615760003660031901126103615760405160006001826001549261123984611b73565b92838352602094856001821691826000146112d6575050600114611279575b5061126592500383611ad3565b611014604051928284938452830190611a27565b84915060016000527fb10e2d527612073b26eecdfd717e6a320cf44b4afac2b0732d9fcbe2b7fa0cf6906000915b8583106112be575050611265935082010185611258565b805483890185015287945086939092019181016112a7565b60ff19168582015261126595151560051b85010192508791506112589050565b346103615760403660031901126103615761130f611a02565b600435600052600660205260406000209060018060a01b0316600052602052602060ff604060002054166040519015158152f35b346103615760003660031901126103615760206040516000805160206125788339815191528152f35b3461036157602036600319011261036157602061138a600435611e76565b6040519015158152f35b346103615760003660031901126103615760206040516000805160206125988339815191528152f35b3461036157602036600319011261036157610d106113d96119ec565b6113e1611fa5565b612304565b34610361576020366003190112610361576001600160a01b036114076119ec565b1680156114265760005260036020526020604060002054604051908152f35b6040516322718ad960e21b815260006004820152602490fd5b3461036157602036600319011261036157602061145d60043561222d565b6040516001600160a01b039091168152f35b3461036157604036600319011261036157600435602435906001600160401b0380831692838103610361576114a261201f565b6000838152600260205260409020546114c5906001600160a01b03161515611e38565b826000526008602052600460406000200191825416841115610c655781546fffffffffffffffff0000000000000000191660409190911b67ffffffffffffffff60401b161790556040519182527ff82d5d539c619378c21cfd3ddea63992ead4f1e7c62fa2aa9e7ddeb98f876c8360203393a3005b3461036157610d1061154b36611a67565b906040519261155984611ab8565b60008452611182838383611c52565b3461036157604036600319011261036157611581611a02565b336001600160a01b0382160361159d57610d10906004356121b6565b60405163334bd91960e11b8152600490fd5b3461036157602036600319011261036157602061138a6115cd6119ec565b611e08565b3461036157602036600319011261036157610d106115ee6119ec565b6115f6611fa5565b612268565b3461036157604036600319011261036157610d1060043561161a611a02565b90806000526006602052611635600160406000200154612069565b61238e565b3461036157602036600319011261036157610d106116566119ec565b61165e611fa5565b61212e565b346103615760203660031901126103615760043560005260066020526020600160406000200154604051908152f35b3461036157610d106116a336611a67565b91611c52565b34610361576040366003190112610361576111e46119ec565b34610361576020366003190112610361576004356116df8161222d565b506000526004602052602060018060a01b0360406000205416604051908152f35b346103615760003660031901126103615760405160008054908261172383611b73565b91828252602093600190856001821691826000146112d6575050600114611751575061126592500383611ad3565b6000808052859250907f290decd9548b62a8d60345a988386fc84ba6bc95484008f6362f93160ef3e5635b858310611793575050611265935082010185611258565b8054838901850152879450869390920191810161177c565b34610361576040366003190112610361576004356117c7611a18565b906117d18161222d565b6001600160a01b031633141580611858575b611840576000818152600860205260409020600401805460ff60801b191683151560801b60ff60801b1617905560405191151582527f1152126dac87d6b12a01466310a21ca9ea53085d01740ae71de0758837e8dc4760203393a3005b604051635b9d0f5f60e01b8152336004820152602490fd5b50336000908152600080516020612558833981519152602052604090205460ff16156117e3565b346103615760403660031901126103615760043561189b611a18565b906118a58161222d565b6001600160a01b031633141580611914575b611840576000818152600860205260409020600401805460ff60901b191683151560901b60ff60901b1617905560405191151582527f795d22567154f17942cd53bbfc965865778f6823ce9e1e6deda17c664d383c4660203393a3005b50336000908152600080516020612558833981519152602052604090205460ff16156118b7565b346103615760203660031901126103615760043563ffffffff60e01b811680910361036157602090637965db0b60e01b8114908115611980575b506040519015158152f35b6380ac58cd60e01b8114915081156119b2575b81156119a1575b5082611975565b6301ffc9a760e01b1490508261199a565b635b5e139f60e01b81149150611993565b3461036157602036600319011261036157610d106119df6119ec565b6119e7611fa5565b61208f565b600435906001600160a01b038216820361036157565b602435906001600160a01b038216820361036157565b60243590811515820361036157565b919082519283825260005b848110611a53575050826000602080949584010152601f8019910116010190565b602081830181015184830182015201611a32565b6060906003190112610361576001600160a01b0390600435828116810361036157916024359081168103610361579060443590565b61012081019081106001600160401b0382111761092257604052565b602081019081106001600160401b0382111761092257604052565b90601f801991011681019081106001600160401b0382111761092257604052565b6001600160401b03811161092257601f01601f191660200190565b929192611b1b82611af4565b91611b296040519384611ad3565b829481845281830111610361578281602093846000960137010152565b9181601f84011215610361578235916001600160401b038311610361576020838186019501011161036157565b90600182811c92168015611ba3575b6020831014611b8d57565b634e487b7160e01b600052602260045260246000fd5b91607f1691611b82565b90604051918260008254611bc081611b73565b90818452602094600191600181169081600014611c305750600114611bf1575b505050611bef92500383611ad3565b565b600090815285812095935091905b818310611c18575050611bef9350820101388080611be0565b85548884018501529485019487945091830191611bff565b92505050611bef94925060ff191682840152151560051b820101388080611be0565b6001600160a01b039182169290918315610c365760009282845260209460028652604095838787205416151580611e00575b611def579084918287526002815284888820541696879133151580611d59575b509060027fddf252ad1be2c89b69c2b068fc378daa952ba7f163c4a11628f55a4df523b3ef9284611d2a575b858352600381528b8320805460010190558683525289812080546001600160a01b0319168517905580a41692838303611d095750505050565b6064945051926364283d7b60e01b8452600484015260248301526044820152fd5b868352600481528b832080546001600160a01b0319169055848352600381528b83208054600019019055611cd0565b91939450915080611dae575b15611d7557859291879138611ca4565b878688611d92576024915190637e27328960e01b82526004820152fd5b604491519063177e802f60e01b82523360048301526024820152fd5b503387148015611dd3575b80611d655750858252600481523385898420541614611d65565b5086825260058152878220338352815260ff8883205416611db9565b8651639cbe235760e01b8152600490fd5b506001611c84565b6001600160a01b03166000908152600960205260409020548015611e3257611e2f90611e76565b90565b50600090565b15611e3f57565b60405162461bcd60e51b815260206004820152600f60248201526e125b9d985b1a59081d1bdad95b9259608a1b6044820152606490fd5b6000908152600260205260409020546001600160a01b031615611f405760086020526040600020600460405191611eac83611a9c565b80548352611ebc60018201611bad565b6020840152611ecd60028201611bad565b6040840152611ede60038201611bad565b60608401520154906001600160401b039061010060ff838516938460808501528560401c16948560a0850152818160801c16151560c0850152818160881c1660e085015260901c1615159101524210159081611f38575090565b905042111590565b600090565b818110611f50575050565b60008155600101611f45565b611f668154611b73565b9081611f70575050565b81601f60009311600114611f82575055565b908083918252611fa1601f60208420940160051c840160018501611f45565b5555565b3360009081527f94fdc7a45360f568054dff4fd08a1be79188f5f51f010270910b0659487f710860205260409020547f2172861495e7b85edac73e3cd5fbb42dd675baadf627720e687bcfdaca0250969060ff16156120015750565b6044906040519063e2517d3f60e01b82523360048301526024820152fd5b3360009081527fa6748b625e6483bc8ac5cc5eb2351b2dfe214a910918c8acbff99f8f4098f28c60205260409020546000805160206125988339815191529060ff16156120015750565b80600052600660205260406000203360005260205260ff60406000205416156120015750565b6001600160a01b031660008181527fa6748b625e6483bc8ac5cc5eb2351b2dfe214a910918c8acbff99f8f4098f28c60205260408120549091906000805160206125988339815191529060ff1615612129578083526006602052604083208284526020526040832060ff1981541690557ff6391f5c32d9c69d2a47ea670b442974b53935d1edc7fd64eb21e047a839171b339380a4600190565b505090565b6001600160a01b0316600081815260008051602061255883398151915260205260408120549091906000805160206125788339815191529060ff1615612129578083526006602052604083208284526020526040832060ff1981541690557ff6391f5c32d9c69d2a47ea670b442974b53935d1edc7fd64eb21e047a839171b339380a4600190565b906000918083526006602052604083209160018060a01b03169182845260205260ff604084205416600014612129578083526006602052604083208284526020526040832060ff1981541690557ff6391f5c32d9c69d2a47ea670b442974b53935d1edc7fd64eb21e047a839171b339380a4600190565b6000818152600260205260409020546001600160a01b0316908115612250575090565b60249060405190637e27328960e01b82526004820152fd5b6001600160a01b031660008181527fa6748b625e6483bc8ac5cc5eb2351b2dfe214a910918c8acbff99f8f4098f28c60205260408120549091906000805160206125988339815191529060ff166121295780835260066020526040832082845260205260408320600160ff198254161790557f2f8788117e7eff1d82e926ec794901d17c78024a50270940304540a733656f0d339380a4600190565b6001600160a01b0316600081815260008051602061255883398151915260205260408120549091906000805160206125788339815191529060ff166121295780835260066020526040832082845260205260408320600160ff198254161790557f2f8788117e7eff1d82e926ec794901d17c78024a50270940304540a733656f0d339380a4600190565b906000918083526006602052604083209160018060a01b03169182845260205260ff604084205416156000146121295780835260066020526040832082845260205260408320600160ff198254161790557f2f8788117e7eff1d82e926ec794901d17c78024a50270940304540a733656f0d339380a4600190565b90939192833b61241b575b5050505050565b604051630a85bd0160e11b8082526001600160a01b039384166004830152958316602482015260448101919091526080606482015294921692602092918590612468906084830190611a27565b039483816000978189895af1869181612513575b506124dd575050503d6000146124d4573d61249681611af4565b906124a46040519283611ad3565b81528093823d92013e5b825192836124cf57604051633250574960e11b815260048101849052602490fd5b019050fd5b606092506124ae565b919450915063ffffffff60e01b16036124fb57503880808080612414565b60249060405190633250574960e11b82526004820152fd5b9091508481813d8311612550575b61252b8183611ad3565b8101031261254c57516001600160e01b03198116810361254c57903861247c565b8680fd5b503d61252156fe42eb9c438747b0bf874f04d46d1bc49e6c61422660efb64905c169900375b490037a85a5009099c5c520ed6ba1a9716432f123547e6790a9e051f560a5ebe4afb5f4ba1c5fe0704bb1c4399e6baa562444b507b8daf8d7c95ffa2d49b06b442ca26469706673582212202df86fbed0178e31d687ed2a93304e12f9f8c12462d8a6437623cb0445ea26b464736f6c634300081800332f8788117e7eff1d82e926ec794901d17c78024a50270940304540a733656f0d","opcodes":"PUSH1 0x80 PUSH1 0x40 MSTORE CALLVALUE PUSH3 0x351 JUMPI PUSH3 0x2B20 DUP1 CODESIZE SUB DUP1 PUSH3 0x1D DUP2 PUSH3 0x356 JUMP JUMPDEST SWAP3 DUP4 CODECOPY DUP2 ADD PUSH1 0x60 DUP3 DUP3 SUB SLT PUSH3 0x351 JUMPI DUP2 MLOAD SWAP1 PUSH1 0x1 PUSH1 0x1 PUSH1 0xA0 SHL SUB DUP3 AND DUP3 SUB PUSH3 0x351 JUMPI PUSH1 0x20 DUP4 DUP2 ADD MLOAD SWAP1 SWAP4 PUSH1 0x1 PUSH1 0x1 PUSH1 0x40 SHL SUB SWAP2 DUP3 DUP2 GT PUSH3 0x351 JUMPI DUP4 PUSH3 0x68 SWAP2 DUP4 ADD PUSH3 0x37C JUMP JUMPDEST SWAP3 PUSH1 0x40 DUP3 ADD MLOAD DUP4 DUP2 GT PUSH3 0x351 JUMPI PUSH3 0x82 SWAP3 ADD PUSH3 0x37C JUMP JUMPDEST DUP3 MLOAD SWAP1 DUP3 DUP3 GT PUSH3 0x33B JUMPI PUSH1 0x0 SWAP6 DUP7 SLOAD SWAP3 PUSH1 0x1 SWAP6 DUP7 DUP6 DUP2 SHR SWAP6 AND DUP1 ISZERO PUSH3 0x330 JUMPI JUMPDEST DUP4 DUP7 LT EQ PUSH3 0x31C JUMPI DUP2 SWAP1 PUSH1 0x1F SWAP6 DUP7 DUP2 GT PUSH3 0x2C9 JUMPI JUMPDEST POP DUP4 SWAP1 DUP7 DUP4 GT PUSH1 0x1 EQ PUSH3 0x265 JUMPI DUP11 SWAP3 PUSH3 0x259 JUMPI JUMPDEST POP POP PUSH1 0x0 NOT PUSH1 0x3 DUP4 SWAP1 SHL SHR NOT AND SWAP1 DUP7 SHL OR DUP8 SSTORE JUMPDEST DUP2 MLOAD SWAP4 DUP5 GT PUSH3 0x245 JUMPI DUP5 SLOAD DUP6 DUP2 DUP2 SHR SWAP2 AND DUP1 ISZERO PUSH3 0x23A JUMPI JUMPDEST DUP3 DUP3 LT EQ PUSH3 0x226 JUMPI DUP4 DUP2 GT PUSH3 0x1DE JUMPI JUMPDEST POP DUP1 SWAP3 DUP5 GT PUSH1 0x1 EQ PUSH3 0x173 JUMPI POP PUSH3 0x156 SWAP6 SWAP2 SWAP1 DUP4 PUSH3 0x167 JUMPI JUMPDEST POP POP PUSH1 0x0 NOT PUSH1 0x3 DUP4 SWAP1 SHL SHR NOT AND SWAP1 DUP3 SHL OR DUP2 SSTORE JUMPDEST PUSH1 0x7 SSTORE PUSH3 0x14F DUP2 PUSH3 0x3EE JUMP JUMPDEST POP PUSH3 0x46F JUMP JUMPDEST POP PUSH1 0x40 MLOAD PUSH2 0x25ED SWAP1 DUP2 PUSH3 0x513 DUP3 CODECOPY RETURN JUMPDEST ADD MLOAD SWAP1 POP CODESIZE DUP1 PUSH3 0x12D JUMP JUMPDEST DUP5 DUP8 MSTORE DUP1 DUP8 KECCAK256 SWAP4 SWAP7 PUSH1 0x1F NOT DUP9 AND SWAP2 JUMPDEST DUP3 DUP3 LT PUSH3 0x1C6 JUMPI POP POP SWAP2 DUP5 SWAP4 SWAP2 DUP8 PUSH3 0x156 SWAP9 SWAP5 LT PUSH3 0x1AC JUMPI JUMPDEST POP POP POP DUP2 SHL ADD DUP2 SSTORE PUSH3 0x141 JUMP JUMPDEST ADD MLOAD PUSH1 0x0 NOT PUSH1 0xF8 DUP5 PUSH1 0x3 SHL AND SHR NOT AND SWAP1 SSTORE CODESIZE DUP1 DUP1 PUSH3 0x19E JUMP JUMPDEST DUP1 DUP8 DUP7 SWAP8 DUP3 SWAP5 SWAP8 DUP8 ADD MLOAD DUP2 SSTORE ADD SWAP7 ADD SWAP5 ADD SWAP1 PUSH3 0x182 JUMP JUMPDEST DUP6 DUP9 MSTORE DUP2 DUP9 KECCAK256 DUP5 DUP1 DUP8 ADD PUSH1 0x5 SHR DUP3 ADD SWAP3 DUP5 DUP9 LT PUSH3 0x21C JUMPI JUMPDEST ADD PUSH1 0x5 SHR ADD SWAP1 DUP7 SWAP1 JUMPDEST DUP3 DUP2 LT PUSH3 0x210 JUMPI POP POP PUSH3 0x111 JUMP JUMPDEST DUP10 DUP2 SSTORE ADD DUP7 SWAP1 PUSH3 0x200 JUMP JUMPDEST SWAP3 POP DUP2 SWAP3 PUSH3 0x1F7 JUMP JUMPDEST PUSH4 0x4E487B71 PUSH1 0xE0 SHL DUP9 MSTORE PUSH1 0x22 PUSH1 0x4 MSTORE PUSH1 0x24 DUP9 REVERT JUMPDEST SWAP1 PUSH1 0x7F AND SWAP1 PUSH3 0xFF JUMP JUMPDEST PUSH4 0x4E487B71 PUSH1 0xE0 SHL DUP8 MSTORE PUSH1 0x41 PUSH1 0x4 MSTORE PUSH1 0x24 DUP8 REVERT JUMPDEST ADD MLOAD SWAP1 POP CODESIZE DUP1 PUSH3 0xD1 JUMP JUMPDEST DUP11 DUP1 MSTORE DUP5 DUP12 KECCAK256 DUP10 SWAP5 POP SWAP2 SWAP1 PUSH1 0x1F NOT DUP5 AND DUP13 JUMPDEST DUP8 DUP3 DUP3 LT PUSH3 0x2B2 JUMPI POP POP DUP5 GT PUSH3 0x298 JUMPI JUMPDEST POP POP POP DUP2 SHL ADD DUP8 SSTORE PUSH3 0xE5 JUMP JUMPDEST ADD MLOAD PUSH1 0x0 NOT PUSH1 0xF8 DUP5 PUSH1 0x3 SHL AND SHR NOT AND SWAP1 SSTORE CODESIZE DUP1 DUP1 PUSH3 0x28A JUMP JUMPDEST DUP4 DUP6 ADD MLOAD DUP7 SSTORE DUP13 SWAP8 SWAP1 SWAP6 ADD SWAP5 SWAP4 DUP5 ADD SWAP4 ADD PUSH3 0x277 JUMP JUMPDEST SWAP1 SWAP2 POP DUP10 DUP1 MSTORE DUP4 DUP11 KECCAK256 DUP7 DUP1 DUP6 ADD PUSH1 0x5 SHR DUP3 ADD SWAP3 DUP7 DUP7 LT PUSH3 0x312 JUMPI JUMPDEST SWAP2 DUP11 SWAP2 DUP7 SWAP6 SWAP5 SWAP4 ADD PUSH1 0x5 SHR ADD SWAP2 JUMPDEST DUP3 DUP2 LT PUSH3 0x303 JUMPI POP POP PUSH3 0xBB JUMP JUMPDEST DUP13 DUP2 SSTORE DUP6 SWAP5 POP DUP11 SWAP2 ADD PUSH3 0x2F3 JUMP JUMPDEST SWAP3 POP DUP2 SWAP3 PUSH3 0x2E5 JUMP JUMPDEST PUSH4 0x4E487B71 PUSH1 0xE0 SHL DUP10 MSTORE PUSH1 0x22 PUSH1 0x4 MSTORE PUSH1 0x24 DUP10 REVERT JUMPDEST SWAP5 PUSH1 0x7F AND SWAP5 PUSH3 0xA4 JUMP JUMPDEST PUSH4 0x4E487B71 PUSH1 0xE0 SHL PUSH1 0x0 MSTORE PUSH1 0x41 PUSH1 0x4 MSTORE PUSH1 0x24 PUSH1 0x0 REVERT JUMPDEST PUSH1 0x0 DUP1 REVERT JUMPDEST PUSH1 0x40 MLOAD SWAP2 SWAP1 PUSH1 0x1F ADD PUSH1 0x1F NOT AND DUP3 ADD PUSH1 0x1 PUSH1 0x1 PUSH1 0x40 SHL SUB DUP2 GT DUP4 DUP3 LT OR PUSH3 0x33B JUMPI PUSH1 0x40 MSTORE JUMP JUMPDEST SWAP2 SWAP1 DUP1 PUSH1 0x1F DUP5 ADD SLT ISZERO PUSH3 0x351 JUMPI DUP3 MLOAD PUSH1 0x1 PUSH1 0x1 PUSH1 0x40 SHL SUB DUP2 GT PUSH3 0x33B JUMPI PUSH1 0x20 SWAP1 PUSH3 0x3B2 PUSH1 0x1F DUP3 ADD PUSH1 0x1F NOT AND DUP4 ADD PUSH3 0x356 JUMP JUMPDEST SWAP3 DUP2 DUP5 MSTORE DUP3 DUP3 DUP8 ADD ADD GT PUSH3 0x351 JUMPI PUSH1 0x0 JUMPDEST DUP2 DUP2 LT PUSH3 0x3DA JUMPI POP DUP3 PUSH1 0x0 SWAP4 SWAP5 SWAP6 POP ADD ADD MSTORE SWAP1 JUMP JUMPDEST DUP6 DUP2 ADD DUP4 ADD MLOAD DUP5 DUP3 ADD DUP5 ADD MSTORE DUP3 ADD PUSH3 0x3C4 JUMP JUMPDEST PUSH1 0x1 PUSH1 0x1 PUSH1 0xA0 SHL SUB AND PUSH1 0x0 DUP2 DUP2 MSTORE PUSH32 0x54CDD369E4E8A8515E52CA72EC816C2101831AD1F18BF44102ED171459C9B4F8 PUSH1 0x20 MSTORE PUSH1 0x40 DUP2 KECCAK256 SLOAD SWAP1 SWAP2 SWAP1 PUSH1 0xFF AND PUSH3 0x46B JUMPI DUP2 DUP1 MSTORE PUSH1 0x6 PUSH1 0x20 MSTORE PUSH1 0x40 DUP3 KECCAK256 DUP2 DUP4 MSTORE PUSH1 0x20 MSTORE PUSH1 0x40 DUP3 KECCAK256 PUSH1 0x1 PUSH1 0xFF NOT DUP3 SLOAD AND OR SWAP1 SSTORE CALLER SWAP2 PUSH1 0x0 DUP1 MLOAD PUSH1 0x20 PUSH3 0x2B00 DUP4 CODECOPY DUP2 MLOAD SWAP2 MSTORE DUP2 DUP1 LOG4 PUSH1 0x1 SWAP1 JUMP JUMPDEST POP SWAP1 JUMP JUMPDEST PUSH1 0x1 PUSH1 0x1 PUSH1 0xA0 SHL SUB AND PUSH1 0x0 DUP2 DUP2 MSTORE PUSH32 0x94FDC7A45360F568054DFF4FD08A1BE79188F5F51F010270910B0659487F7108 PUSH1 0x20 MSTORE PUSH1 0x40 DUP2 KECCAK256 SLOAD SWAP1 SWAP2 SWAP1 PUSH32 0x2172861495E7B85EDAC73E3CD5FBB42DD675BAADF627720E687BCFDACA025096 SWAP1 PUSH1 0xFF AND PUSH3 0x50D JUMPI DUP1 DUP4 MSTORE PUSH1 0x6 PUSH1 0x20 MSTORE PUSH1 0x40 DUP4 KECCAK256 DUP3 DUP5 MSTORE PUSH1 0x20 MSTORE PUSH1 0x40 DUP4 KECCAK256 PUSH1 0x1 PUSH1 0xFF NOT DUP3 SLOAD AND OR SWAP1 SSTORE PUSH1 0x0 DUP1 MLOAD PUSH1 0x20 PUSH3 0x2B00 DUP4 CODECOPY DUP2 MLOAD SWAP2 MSTORE CALLER SWAP4 DUP1 LOG4 PUSH1 0x1 SWAP1 JUMP JUMPDEST POP POP SWAP1 JUMP INVALID PUSH1 0x80 PUSH1 0x40 MSTORE PUSH1 0x4 CALLDATASIZE LT ISZERO PUSH2 0x12 JUMPI PUSH1 0x0 DUP1 REVERT JUMPDEST PUSH1 0x0 CALLDATALOAD PUSH1 0xE0 SHR DUP1 PUSH3 0x629679 EQ PUSH2 0x19C3 JUMPI DUP1 PUSH4 0x1FFC9A7 EQ PUSH2 0x193B JUMPI DUP1 PUSH4 0x618A69B EQ PUSH2 0x187F JUMPI DUP1 PUSH4 0x647593F EQ PUSH2 0x17AB JUMPI DUP1 PUSH4 0x6FDDE03 EQ PUSH2 0x1700 JUMPI DUP1 PUSH4 0x81812FC EQ PUSH2 0x16C2 JUMPI DUP1 PUSH4 0x95EA7B3 EQ PUSH2 0x16A9 JUMPI DUP1 PUSH4 0x23B872DD EQ PUSH2 0x1692 JUMPI DUP1 PUSH4 0x248A9CA3 EQ PUSH2 0x1663 JUMPI DUP1 PUSH4 0x273389BB EQ PUSH2 0x163A JUMPI DUP1 PUSH4 0x2F2FF15D EQ PUSH2 0x15FB JUMPI DUP1 PUSH4 0x3068BFFD EQ PUSH2 0x15D2 JUMPI DUP1 PUSH4 0x316D21B9 EQ PUSH2 0x15AF JUMPI DUP1 PUSH4 0x36568ABE EQ PUSH2 0x1568 JUMPI DUP1 PUSH4 0x42842E0E EQ PUSH2 0x153A JUMPI DUP1 PUSH4 0x47FE464D EQ PUSH2 0x146F JUMPI DUP1 PUSH4 0x6352211E EQ PUSH2 0x143F JUMPI DUP1 PUSH4 0x63A4FEB1 EQ PUSH2 0x1188 JUMPI DUP1 PUSH4 0x70A08231 EQ PUSH2 0x13E6 JUMPI DUP1 PUSH4 0x77328E38 EQ PUSH2 0x13BD JUMPI DUP1 PUSH4 0x794D3850 EQ PUSH2 0x1394 JUMPI DUP1 PUSH4 0x82AFD23B EQ PUSH2 0x136C JUMPI DUP1 PUSH4 0x86A50137 EQ PUSH2 0x1343 JUMPI DUP1 PUSH4 0x91D14854 EQ PUSH2 0x12F6 JUMPI DUP1 PUSH4 0x95D89B41 EQ PUSH2 0x1213 JUMPI DUP1 PUSH4 0xA217FDDF EQ PUSH2 0x11F7 JUMPI DUP1 PUSH4 0xA22CB465 EQ PUSH2 0x11C2 JUMPI DUP1 PUSH4 0xA6E98E39 EQ PUSH2 0x1188 JUMPI DUP1 PUSH4 0xB88D4FDE EQ PUSH2 0x111D JUMPI DUP1 PUSH4 0xBFAAB516 EQ PUSH2 0x1018 JUMPI DUP1 PUSH4 0xC87B56DD EQ PUSH2 0xFC1 JUMPI DUP1 PUSH4 0xCE3375D5 EQ PUSH2 0xD4D JUMPI DUP1 PUSH4 0xD391014B EQ PUSH2 0xD12 JUMPI DUP1 PUSH4 0xD547741F EQ PUSH2 0xCD1 JUMPI DUP1 PUSH4 0xE8B439D6 EQ PUSH2 0x3BC JUMPI DUP1 PUSH4 0xE985E9C5 EQ PUSH2 0x366 JUMPI PUSH4 0xF08F4F64 EQ PUSH2 0x1B2 JUMPI PUSH1 0x0 DUP1 REVERT JUMPDEST CALLVALUE PUSH2 0x361 JUMPI PUSH1 0x20 DUP1 PUSH1 0x3 NOT CALLDATASIZE ADD SLT PUSH2 0x361 JUMPI PUSH1 0x40 MLOAD PUSH1 0x4 CALLDATALOAD PUSH2 0x1D3 DUP3 PUSH2 0x1A9C JUMP JUMPDEST PUSH1 0x0 DUP3 MSTORE PUSH1 0x60 SWAP1 DUP2 DUP5 DUP5 ADD MSTORE DUP2 PUSH1 0x40 DUP5 ADD MSTORE DUP2 DUP1 DUP5 ADD MSTORE PUSH1 0x80 DUP4 ADD PUSH1 0x0 SWAP1 MSTORE PUSH1 0xA0 DUP4 ADD PUSH1 0x0 SWAP1 MSTORE PUSH1 0xC0 DUP4 ADD PUSH1 0x0 SWAP1 MSTORE PUSH1 0xE0 DUP4 ADD PUSH1 0x0 SWAP1 MSTORE PUSH2 0x100 DUP1 SWAP4 ADD PUSH1 0x0 SWAP1 MSTORE DUP1 PUSH1 0x0 MSTORE PUSH1 0x2 DUP5 MSTORE PUSH1 0x1 PUSH1 0xA0 SHL PUSH1 0x1 SWAP1 SUB PUSH1 0x40 PUSH1 0x0 KECCAK256 SLOAD AND ISZERO ISZERO PUSH2 0x237 SWAP1 PUSH2 0x1E38 JUMP JUMPDEST PUSH1 0x0 MSTORE PUSH1 0x8 DUP4 MSTORE PUSH1 0x40 PUSH1 0x0 KECCAK256 SWAP2 PUSH1 0x40 MLOAD SWAP3 PUSH2 0x251 DUP5 PUSH2 0x1A9C JUMP JUMPDEST DUP1 SLOAD DUP5 MSTORE PUSH2 0x261 PUSH1 0x1 DUP3 ADD PUSH2 0x1BAD JUMP JUMPDEST DUP5 DUP7 ADD SWAP1 DUP2 MSTORE SWAP2 PUSH2 0x274 PUSH1 0x2 DUP4 ADD PUSH2 0x1BAD JUMP JUMPDEST PUSH1 0x40 DUP7 ADD SWAP1 DUP2 MSTORE SWAP3 PUSH2 0x288 PUSH1 0x3 DUP5 ADD PUSH2 0x1BAD JUMP JUMPDEST SWAP3 DUP6 DUP8 ADD SWAP4 DUP5 MSTORE PUSH1 0x4 ADD SLOAD SWAP3 PUSH1 0x1 PUSH1 0x1 PUSH1 0x40 SHL SUB PUSH1 0x80 DUP9 ADD SWAP7 DUP2 DUP7 AND DUP9 MSTORE DUP2 PUSH1 0xA0 DUP11 ADD SWAP2 DUP2 DUP9 PUSH1 0x40 SHR AND DUP4 MSTORE PUSH1 0xC0 DUP12 ADD SWAP5 DUP9 PUSH1 0x80 SHR PUSH1 0xFF AND ISZERO ISZERO DUP7 MSTORE PUSH1 0xE0 DUP13 ADD SWAP7 DUP10 PUSH1 0x88 SHR PUSH1 0xFF AND DUP9 MSTORE DUP9 DUP14 ADD SWAP10 PUSH1 0x90 SHR PUSH1 0xFF AND ISZERO ISZERO DUP11 MSTORE PUSH1 0x40 MLOAD DUP15 DUP2 SWAP16 SWAP15 DUP3 SWAP16 DUP4 MSTORE MLOAD SWAP2 ADD MSTORE MLOAD SWAP10 PUSH2 0x120 SWAP11 DUP14 DUP13 PUSH1 0x40 DUP3 ADD MSTORE PUSH2 0x140 ADD PUSH2 0x309 SWAP2 PUSH2 0x1A27 JUMP JUMPDEST SWAP1 MLOAD SWAP1 DUP14 PUSH1 0x1F NOT SWAP5 DUP6 DUP3 DUP5 SUB ADD SWAP2 ADD MSTORE PUSH2 0x322 SWAP2 PUSH2 0x1A27 JUMP JUMPDEST SWAP1 MLOAD SWAP2 DUP13 DUP3 SUB ADD PUSH1 0x80 DUP14 ADD MSTORE PUSH2 0x337 SWAP2 PUSH2 0x1A27 JUMP JUMPDEST SWAP9 MLOAD AND PUSH1 0xA0 DUP11 ADD MSTORE MLOAD AND PUSH1 0xC0 DUP9 ADD MSTORE MLOAD ISZERO ISZERO PUSH1 0xE0 DUP8 ADD MSTORE MLOAD PUSH1 0xFF AND SWAP1 DUP6 ADD MSTORE MLOAD ISZERO ISZERO SWAP1 DUP4 ADD MSTORE SUB SWAP1 RETURN JUMPDEST PUSH1 0x0 DUP1 REVERT JUMPDEST CALLVALUE PUSH2 0x361 JUMPI PUSH1 0x40 CALLDATASIZE PUSH1 0x3 NOT ADD SLT PUSH2 0x361 JUMPI PUSH2 0x37F PUSH2 0x19EC JUMP JUMPDEST PUSH2 0x387 PUSH2 0x1A02 JUMP JUMPDEST SWAP1 PUSH1 0x1 DUP1 PUSH1 0xA0 SHL SUB DUP1 SWAP2 AND PUSH1 0x0 MSTORE PUSH1 0x5 PUSH1 0x20 MSTORE PUSH1 0x40 PUSH1 0x0 KECCAK256 SWAP2 AND PUSH1 0x0 MSTORE PUSH1 0x20 MSTORE PUSH1 0x20 PUSH1 0xFF PUSH1 0x40 PUSH1 0x0 KECCAK256 SLOAD AND PUSH1 0x40 MLOAD SWAP1 ISZERO ISZERO DUP2 MSTORE RETURN JUMPDEST CALLVALUE PUSH2 0x361 JUMPI PUSH2 0x120 CALLDATASIZE PUSH1 0x3 NOT ADD SLT PUSH2 0x361 JUMPI PUSH2 0x3D6 PUSH2 0x19EC JUMP JUMPDEST PUSH1 0x44 CALLDATALOAD PUSH1 0x1 PUSH1 0x1 PUSH1 0x40 SHL SUB DUP2 GT PUSH2 0x361 JUMPI PUSH2 0x3F5 SWAP1 CALLDATASIZE SWAP1 PUSH1 0x4 ADD PUSH2 0x1B46 JUMP JUMPDEST SWAP2 SWAP1 PUSH1 0x64 CALLDATALOAD PUSH1 0x1 PUSH1 0x1 PUSH1 0x40 SHL SUB DUP2 GT PUSH2 0x361 JUMPI PUSH2 0x416 SWAP1 CALLDATASIZE SWAP1 PUSH1 0x4 ADD PUSH2 0x1B46 JUMP JUMPDEST SWAP1 PUSH1 0x84 CALLDATALOAD PUSH1 0x1 PUSH1 0x1 PUSH1 0x40 SHL SUB DUP2 GT PUSH2 0x361 JUMPI PUSH2 0x436 SWAP1 CALLDATASIZE SWAP1 PUSH1 0x4 ADD PUSH2 0x1B46 JUMP JUMPDEST SWAP1 PUSH1 0xA4 CALLDATALOAD SWAP1 PUSH1 0x1 PUSH1 0x1 PUSH1 0x40 SHL SUB DUP3 AND DUP3 SUB PUSH2 0x361 JUMPI PUSH1 0xC4 CALLDATALOAD SWAP3 PUSH1 0x1 PUSH1 0x1 PUSH1 0x40 SHL SUB DUP5 AND DUP5 SUB PUSH2 0x361 JUMPI PUSH1 0xE4 CALLDATALOAD SWAP5 DUP6 ISZERO ISZERO DUP7 SUB PUSH2 0x361 JUMPI PUSH2 0x104 CALLDATALOAD SWAP7 PUSH1 0xFF DUP9 AND DUP9 SUB PUSH2 0x361 JUMPI PUSH2 0x483 PUSH2 0x201F JUMP JUMPDEST PUSH1 0x1 PUSH1 0x1 PUSH1 0xA0 SHL SUB DUP11 AND PUSH1 0x0 SWAP1 DUP2 MSTORE PUSH1 0x9 PUSH1 0x20 MSTORE PUSH1 0x40 SWAP1 KECCAK256 SLOAD PUSH2 0xCB0 JUMPI PUSH1 0x1 PUSH1 0x1 PUSH1 0x40 SHL SUB DUP6 AND PUSH1 0x1 PUSH1 0x1 PUSH1 0x40 SHL SUB DUP8 AND GT DUP1 ISZERO SWAP1 PUSH2 0xC77 JUMPI JUMPDEST PUSH2 0xC65 JUMPI PUSH1 0x7 SLOAD SWAP9 PUSH1 0x0 NOT DUP11 EQ PUSH2 0xC4F JUMPI PUSH1 0x1 DUP11 ADD PUSH1 0x7 SSTORE PUSH1 0x40 MLOAD PUSH2 0x4E1 DUP2 PUSH2 0x1AB8 JUMP JUMPDEST PUSH1 0x0 DUP2 MSTORE PUSH1 0x1 PUSH1 0x1 PUSH1 0xA0 SHL SUB DUP13 AND ISZERO PUSH2 0xC36 JUMPI PUSH1 0x0 DUP12 DUP2 MSTORE PUSH1 0x2 PUSH1 0x20 MSTORE PUSH1 0x40 SWAP1 KECCAK256 SLOAD PUSH1 0x1 PUSH1 0x1 PUSH1 0xA0 SHL SUB AND ISZERO ISZERO DUP1 PUSH2 0xC2E JUMPI JUMPDEST PUSH2 0xC1C JUMPI PUSH1 0x0 DUP12 DUP2 MSTORE PUSH1 0x2 PUSH1 0x20 MSTORE PUSH1 0x40 SWAP1 KECCAK256 SLOAD PUSH1 0x1 PUSH1 0x1 PUSH1 0xA0 SHL SUB AND DUP1 PUSH2 0xBE2 JUMPI JUMPDEST PUSH1 0x1 PUSH1 0x1 PUSH1 0xA0 SHL SUB DUP14 AND PUSH1 0x0 DUP2 DUP2 MSTORE PUSH1 0x3 PUSH1 0x20 SWAP1 DUP2 MSTORE PUSH1 0x40 DUP1 DUP4 KECCAK256 DUP1 SLOAD PUSH1 0x1 ADD SWAP1 SSTORE DUP16 DUP4 MSTORE PUSH1 0x2 SWAP1 SWAP2 MSTORE DUP2 KECCAK256 DUP1 SLOAD PUSH1 0x1 PUSH1 0x1 PUSH1 0xA0 SHL SUB NOT AND DUP4 OR SWAP1 SSTORE DUP14 SWAP2 SWAP1 DUP4 SWAP1 PUSH32 0xDDF252AD1BE2C89B69C2B068FC378DAA952BA7F163C4A11628F55A4DF523B3EF SWAP1 DUP1 LOG4 PUSH2 0xBC9 JUMPI DUP12 EXTCODESIZE PUSH2 0xA89 JUMPI JUMPDEST POP PUSH1 0x40 MLOAD SWAP12 PUSH2 0x5B4 DUP14 PUSH2 0x1A9C JUMP JUMPDEST PUSH1 0x24 CALLDATALOAD DUP14 MSTORE CALLDATASIZE SWAP1 PUSH2 0x5C4 SWAP3 PUSH2 0x1B0F JUMP JUMPDEST PUSH1 0x20 DUP13 ADD MSTORE CALLDATASIZE SWAP1 PUSH2 0x5D4 SWAP3 PUSH2 0x1B0F JUMP JUMPDEST PUSH1 0x40 DUP11 ADD MSTORE CALLDATASIZE SWAP1 PUSH2 0x5E4 SWAP3 PUSH2 0x1B0F JUMP JUMPDEST PUSH1 0x60 DUP9 ADD MSTORE PUSH1 0x1 PUSH1 0x1 PUSH1 0x40 SHL SUB AND PUSH1 0x80 DUP8 ADD MSTORE PUSH1 0x1 PUSH1 0x1 PUSH1 0x40 SHL SUB AND PUSH1 0xA0 DUP7 ADD MSTORE ISZERO ISZERO PUSH1 0xC0 DUP6 ADD MSTORE PUSH1 0xFF AND PUSH1 0xE0 DUP5 ADD MSTORE PUSH2 0x100 DUP4 ADD PUSH1 0x0 SWAP1 MSTORE DUP1 PUSH1 0x0 MSTORE PUSH1 0x8 PUSH1 0x20 MSTORE PUSH1 0x40 PUSH1 0x0 KECCAK256 SWAP3 DUP1 MLOAD DUP5 SSTORE PUSH1 0x20 DUP2 ADD MLOAD DUP1 MLOAD SWAP1 PUSH1 0x1 PUSH1 0x1 PUSH1 0x40 SHL SUB DUP3 GT PUSH2 0x922 JUMPI PUSH2 0x653 PUSH1 0x1 DUP8 ADD SLOAD PUSH2 0x1B73 JUMP JUMPDEST PUSH1 0x1F DUP2 GT PUSH2 0xA54 JUMPI JUMPDEST POP PUSH1 0x20 SWAP1 PUSH1 0x1F DUP4 GT PUSH1 0x1 EQ PUSH2 0x9E6 JUMPI PUSH2 0x68E SWAP3 SWAP2 PUSH1 0x0 SWAP2 DUP4 PUSH2 0x938 JUMPI JUMPDEST POP POP DUP2 PUSH1 0x1 SHL SWAP2 PUSH1 0x0 NOT SWAP1 PUSH1 0x3 SHL SHR NOT AND OR SWAP1 JUMP JUMPDEST PUSH1 0x1 DUP6 ADD SSTORE JUMPDEST PUSH1 0x40 DUP2 ADD MLOAD DUP1 MLOAD SWAP1 PUSH1 0x1 PUSH1 0x1 PUSH1 0x40 SHL SUB DUP3 GT PUSH2 0x922 JUMPI PUSH2 0x6B7 PUSH1 0x2 DUP8 ADD SLOAD PUSH2 0x1B73 JUMP JUMPDEST PUSH1 0x1F DUP2 GT PUSH2 0x9B1 JUMPI JUMPDEST POP PUSH1 0x20 SWAP1 PUSH1 0x1F DUP4 GT PUSH1 0x1 EQ PUSH2 0x943 JUMPI PUSH2 0x6F1 SWAP3 SWAP2 PUSH1 0x0 SWAP2 DUP4 PUSH2 0x938 JUMPI POP POP DUP2 PUSH1 0x1 SHL SWAP2 PUSH1 0x0 NOT SWAP1 PUSH1 0x3 SHL SHR NOT AND OR SWAP1 JUMP JUMPDEST PUSH1 0x2 DUP6 ADD SSTORE JUMPDEST PUSH1 0x60 DUP2 ADD MLOAD SWAP4 DUP5 MLOAD PUSH1 0x1 PUSH1 0x1 PUSH1 0x40 SHL SUB DUP2 GT PUSH2 0x922 JUMPI PUSH1 0x20 SWAP6 PUSH2 0x71D PUSH1 0x3 DUP5 ADD SLOAD PUSH2 0x1B73 JUMP JUMPDEST PUSH1 0x1F DUP2 GT PUSH2 0x8E4 JUMPI JUMPDEST POP DUP7 SWAP1 PUSH1 0x1F DUP4 GT PUSH1 0x1 EQ PUSH2 0x86C JUMPI SWAP3 PUSH2 0x761 DUP4 PUSH2 0x100 SWAP5 PUSH1 0x4 SWAP5 PUSH2 0x816 SWAP9 SWAP8 PUSH1 0x0 SWAP3 PUSH2 0x861 JUMPI POP POP DUP2 PUSH1 0x1 SHL SWAP2 PUSH1 0x0 NOT SWAP1 PUSH1 0x3 SHL SHR NOT AND OR SWAP1 JUMP JUMPDEST PUSH1 0x3 DUP3 ADD SSTORE JUMPDEST ADD SWAP2 PUSH1 0x1 PUSH1 0x1 PUSH1 0x40 SHL SUB PUSH1 0x80 DUP3 ADD MLOAD AND PUSH1 0x1 PUSH1 0x1 PUSH1 0x40 SHL SUB NOT DUP5 SLOAD AND OR DUP4 SSTORE PUSH2 0x7C0 PUSH1 0x1 PUSH1 0x1 PUSH1 0x40 SHL SUB PUSH1 0xA0 DUP4 ADD MLOAD AND DUP5 SWAP1 PUSH8 0xFFFFFFFFFFFFFFFF PUSH1 0x40 SHL DUP3 SLOAD SWAP2 PUSH1 0x40 SHL AND SWAP1 PUSH8 0xFFFFFFFFFFFFFFFF PUSH1 0x40 SHL NOT AND OR SWAP1 SSTORE JUMP JUMPDEST PUSH1 0xC0 DUP2 ADD MLOAD DUP4 SLOAD PUSH1 0xFF PUSH1 0x80 SHL NOT AND SWAP1 ISZERO ISZERO PUSH1 0x80 SHL PUSH1 0xFF PUSH1 0x80 SHL AND OR DUP4 SSTORE PUSH1 0xE0 DUP2 ADD MLOAD DUP4 SLOAD PUSH1 0xFF PUSH1 0x88 SHL NOT AND PUSH1 0x88 SWAP2 SWAP1 SWAP2 SHL PUSH1 0xFF PUSH1 0x88 SHL AND OR DUP4 SSTORE ADD MLOAD DUP2 SLOAD PUSH1 0xFF PUSH1 0x90 SHL NOT AND SWAP1 ISZERO ISZERO PUSH1 0x90 SHL PUSH1 0xFF PUSH1 0x90 SHL AND OR SWAP1 SSTORE JUMP JUMPDEST PUSH1 0x1 PUSH1 0x1 PUSH1 0xA0 SHL SUB SWAP2 SWAP1 SWAP2 AND PUSH1 0x0 DUP2 DUP2 MSTORE PUSH1 0x9 DUP5 MSTORE PUSH1 0x40 DUP1 DUP3 KECCAK256 DUP5 SWAP1 SSTORE MLOAD SWAP3 SWAP2 SWAP1 DUP3 SWAP1 PUSH32 0x9020690FBCDB982F77CBE8DC09B41A0EE3CA6A588EA48E266A81C565CFF9D38B SWAP1 DUP1 LOG3 DUP2 MSTORE RETURN JUMPDEST ADD MLOAD SWAP1 POP DUP12 DUP1 PUSH2 0x679 JUMP JUMPDEST SWAP1 PUSH1 0x3 DUP5 ADD PUSH1 0x0 MSTORE DUP8 PUSH1 0x0 KECCAK256 SWAP2 PUSH1 0x0 JUMPDEST PUSH1 0x1F NOT DUP6 AND DUP2 LT PUSH2 0x8CD JUMPI POP DUP4 PUSH1 0x4 SWAP4 PUSH2 0x816 SWAP8 SWAP7 SWAP4 PUSH1 0x1 SWAP4 PUSH2 0x100 SWAP8 PUSH1 0x1F NOT DUP2 AND LT PUSH2 0x8B4 JUMPI JUMPDEST POP POP POP DUP2 SHL ADD PUSH1 0x3 DUP3 ADD SSTORE PUSH2 0x767 JUMP JUMPDEST ADD MLOAD PUSH1 0x0 NOT PUSH1 0xF8 DUP5 PUSH1 0x3 SHL AND SHR NOT AND SWAP1 SSTORE DUP11 DUP1 DUP1 PUSH2 0x8A4 JUMP JUMPDEST SWAP2 SWAP3 DUP10 PUSH1 0x1 DUP2 SWAP3 DUP7 DUP6 ADD MLOAD DUP2 SSTORE ADD SWAP5 ADD SWAP3 ADD PUSH2 0x87C JUMP JUMPDEST PUSH2 0x912 SWAP1 PUSH1 0x3 DUP6 ADD PUSH1 0x0 MSTORE DUP9 PUSH1 0x0 KECCAK256 PUSH1 0x1F DUP6 ADD PUSH1 0x5 SHR DUP2 ADD SWAP2 DUP11 DUP7 LT PUSH2 0x918 JUMPI JUMPDEST PUSH1 0x1F ADD PUSH1 0x5 SHR ADD SWAP1 PUSH2 0x1F45 JUMP JUMPDEST DUP8 PUSH2 0x726 JUMP JUMPDEST SWAP1 SWAP2 POP DUP2 SWAP1 PUSH2 0x905 JUMP JUMPDEST PUSH4 0x4E487B71 PUSH1 0xE0 SHL PUSH1 0x0 MSTORE PUSH1 0x41 PUSH1 0x4 MSTORE PUSH1 0x24 PUSH1 0x0 REVERT JUMPDEST ADD MLOAD SWAP1 POP DUP8 DUP1 PUSH2 0x679 JUMP JUMPDEST SWAP1 PUSH1 0x1F NOT DUP4 AND SWAP2 PUSH1 0x2 DUP9 ADD PUSH1 0x0 MSTORE PUSH1 0x20 PUSH1 0x0 KECCAK256 SWAP3 PUSH1 0x0 JUMPDEST DUP2 DUP2 LT PUSH2 0x999 JUMPI POP SWAP1 DUP5 PUSH1 0x1 SWAP6 SWAP5 SWAP4 SWAP3 LT PUSH2 0x980 JUMPI JUMPDEST POP POP POP DUP2 SHL ADD PUSH1 0x2 DUP6 ADD SSTORE PUSH2 0x6F7 JUMP JUMPDEST ADD MLOAD PUSH1 0x0 NOT PUSH1 0xF8 DUP5 PUSH1 0x3 SHL AND SHR NOT AND SWAP1 SSTORE DUP7 DUP1 DUP1 PUSH2 0x970 JUMP JUMPDEST SWAP3 SWAP4 PUSH1 0x20 PUSH1 0x1 DUP2 SWAP3 DUP8 DUP7 ADD MLOAD DUP2 SSTORE ADD SWAP6 ADD SWAP4 ADD PUSH2 0x95A JUMP JUMPDEST PUSH2 0x9E0 SWAP1 PUSH1 0x2 DUP9 ADD PUSH1 0x0 MSTORE PUSH1 0x20 PUSH1 0x0 KECCAK256 PUSH1 0x1F DUP6 ADD PUSH1 0x5 SHR DUP2 ADD SWAP2 PUSH1 0x20 DUP7 LT PUSH2 0x918 JUMPI PUSH1 0x1F ADD PUSH1 0x5 SHR ADD SWAP1 PUSH2 0x1F45 JUMP JUMPDEST DUP7 PUSH2 0x6C0 JUMP JUMPDEST SWAP1 PUSH1 0x1F NOT DUP4 AND SWAP2 PUSH1 0x1 DUP9 ADD PUSH1 0x0 MSTORE PUSH1 0x20 PUSH1 0x0 KECCAK256 SWAP3 PUSH1 0x0 JUMPDEST DUP2 DUP2 LT PUSH2 0xA3C JUMPI POP SWAP1 DUP5 PUSH1 0x1 SWAP6 SWAP5 SWAP4 SWAP3 LT PUSH2 0xA23 JUMPI JUMPDEST POP POP POP DUP2 SHL ADD PUSH1 0x1 DUP6 ADD SSTORE PUSH2 0x694 JUMP JUMPDEST ADD MLOAD PUSH1 0x0 NOT PUSH1 0xF8 DUP5 PUSH1 0x3 SHL AND SHR NOT AND SWAP1 SSTORE DUP7 DUP1 DUP1 PUSH2 0xA13 JUMP JUMPDEST SWAP3 SWAP4 PUSH1 0x20 PUSH1 0x1 DUP2 SWAP3 DUP8 DUP7 ADD MLOAD DUP2 SSTORE ADD SWAP6 ADD SWAP4 ADD PUSH2 0x9FD JUMP JUMPDEST PUSH2 0xA83 SWAP1 PUSH1 0x1 DUP9 ADD PUSH1 0x0 MSTORE PUSH1 0x20 PUSH1 0x0 KECCAK256 PUSH1 0x1F DUP6 ADD PUSH1 0x5 SHR DUP2 ADD SWAP2 PUSH1 0x20 DUP7 LT PUSH2 0x918 JUMPI PUSH1 0x1F ADD PUSH1 0x5 SHR ADD SWAP1 PUSH2 0x1F45 JUMP JUMPDEST DUP7 PUSH2 0x65C JUMP JUMPDEST PUSH1 0x20 PUSH2 0xAC8 SWAP2 DUP14 DUP14 PUSH1 0x0 PUSH1 0x40 MLOAD DUP1 SWAP7 DUP2 SWAP6 DUP3 SWAP5 PUSH4 0xA85BD01 PUSH1 0xE1 SHL DUP5 MSTORE CALLER PUSH1 0x4 DUP6 ADD MSTORE DUP5 PUSH1 0x24 DUP6 ADD MSTORE PUSH1 0x44 DUP5 ADD MSTORE PUSH1 0x80 PUSH1 0x64 DUP5 ADD MSTORE PUSH1 0x84 DUP4 ADD SWAP1 PUSH2 0x1A27 JUMP JUMPDEST SUB SWAP3 PUSH1 0x1 PUSH1 0x1 PUSH1 0xA0 SHL SUB AND GAS CALL PUSH1 0x0 SWAP2 DUP2 PUSH2 0xB84 JUMPI JUMPDEST POP PUSH2 0xB46 JUMPI DUP12 RETURNDATASIZE ISZERO PUSH2 0xB3E JUMPI RETURNDATASIZE SWAP1 PUSH2 0xAF5 DUP3 PUSH2 0x1AF4 JUMP JUMPDEST SWAP2 PUSH2 0xB03 PUSH1 0x40 MLOAD SWAP4 DUP5 PUSH2 0x1AD3 JUMP JUMPDEST DUP3 MSTORE RETURNDATASIZE PUSH1 0x0 PUSH1 0x20 DUP5 ADD RETURNDATACOPY JUMPDEST DUP2 MLOAD SWAP2 DUP3 PUSH2 0xB37 JUMPI PUSH1 0x40 MLOAD PUSH4 0x32505749 PUSH1 0xE1 SHL DUP2 MSTORE PUSH1 0x1 PUSH1 0x1 PUSH1 0xA0 SHL SUB DUP4 AND PUSH1 0x4 DUP3 ADD MSTORE PUSH1 0x24 SWAP1 REVERT JUMPDEST PUSH1 0x20 SWAP2 POP ADD REVERT JUMPDEST PUSH1 0x60 SWAP1 PUSH2 0xB0E JUMP JUMPDEST PUSH1 0x1 PUSH1 0x1 PUSH1 0xE0 SHL SUB NOT AND PUSH4 0x757A42FF PUSH1 0xE1 SHL ADD PUSH2 0xB63 JUMPI DUP13 PUSH2 0x5A6 JUMP JUMPDEST PUSH1 0x40 MLOAD PUSH4 0x32505749 PUSH1 0xE1 SHL DUP2 MSTORE PUSH1 0x1 PUSH1 0x1 PUSH1 0xA0 SHL SUB DUP13 AND PUSH1 0x4 DUP3 ADD MSTORE PUSH1 0x24 SWAP1 REVERT JUMPDEST SWAP1 SWAP2 POP PUSH1 0x20 DUP2 RETURNDATASIZE PUSH1 0x20 GT PUSH2 0xBC1 JUMPI JUMPDEST DUP2 PUSH2 0xBA0 PUSH1 0x20 SWAP4 DUP4 PUSH2 0x1AD3 JUMP JUMPDEST DUP2 ADD SUB SLT PUSH2 0x361 JUMPI MLOAD PUSH1 0x1 PUSH1 0x1 PUSH1 0xE0 SHL SUB NOT DUP2 AND DUP2 SUB PUSH2 0x361 JUMPI SWAP1 DUP15 PUSH2 0xADE JUMP JUMPDEST RETURNDATASIZE SWAP2 POP PUSH2 0xB93 JUMP JUMPDEST PUSH1 0x40 MLOAD PUSH4 0x39E35637 PUSH1 0xE1 SHL DUP2 MSTORE PUSH1 0x0 PUSH1 0x4 DUP3 ADD MSTORE PUSH1 0x24 SWAP1 REVERT JUMPDEST PUSH1 0x4 PUSH1 0x20 MSTORE PUSH1 0x40 PUSH1 0x0 KECCAK256 PUSH12 0xFFFFFFFFFFFFFFFFFFFFFFFF PUSH1 0xA0 SHL DUP2 SLOAD AND SWAP1 SSTORE DUP1 PUSH1 0x0 MSTORE PUSH1 0x3 PUSH1 0x20 MSTORE PUSH1 0x40 PUSH1 0x0 KECCAK256 PUSH1 0x0 NOT DUP2 SLOAD ADD SWAP1 SSTORE PUSH2 0x536 JUMP JUMPDEST PUSH1 0x40 MLOAD PUSH4 0x9CBE2357 PUSH1 0xE0 SHL DUP2 MSTORE PUSH1 0x4 SWAP1 REVERT JUMPDEST POP PUSH1 0x1 PUSH2 0x514 JUMP JUMPDEST PUSH1 0x40 MLOAD PUSH4 0x32505749 PUSH1 0xE1 SHL DUP2 MSTORE PUSH1 0x0 PUSH1 0x4 DUP3 ADD MSTORE PUSH1 0x24 SWAP1 REVERT JUMPDEST PUSH4 0x4E487B71 PUSH1 0xE0 SHL PUSH1 0x0 MSTORE PUSH1 0x11 PUSH1 0x4 MSTORE PUSH1 0x24 PUSH1 0x0 REVERT JUMPDEST PUSH1 0x40 MLOAD PUSH4 0xB11CD481 PUSH1 0xE0 SHL DUP2 MSTORE PUSH1 0x4 SWAP1 REVERT JUMPDEST POP PUSH1 0x1 PUSH1 0x1 PUSH1 0x40 SHL SUB DUP6 AND PUSH1 0x1 PUSH1 0x1 PUSH1 0x40 SHL SUB DUP8 AND SUB PUSH1 0x1 PUSH1 0x1 PUSH1 0x40 SHL SUB DUP2 GT PUSH2 0xC4F JUMPI PUSH1 0x1 PUSH1 0x1 PUSH1 0x40 SHL SUB PUSH4 0x1E13380 SWAP2 AND GT PUSH2 0x4BD JUMP JUMPDEST PUSH1 0x40 MLOAD PUSH4 0x80278497 PUSH1 0xE0 SHL DUP2 MSTORE PUSH1 0x1 PUSH1 0x1 PUSH1 0xA0 SHL SUB DUP12 AND PUSH1 0x4 DUP3 ADD MSTORE PUSH1 0x24 SWAP1 REVERT JUMPDEST CALLVALUE PUSH2 0x361 JUMPI PUSH1 0x40 CALLDATASIZE PUSH1 0x3 NOT ADD SLT PUSH2 0x361 JUMPI PUSH2 0xD10 PUSH1 0x4 CALLDATALOAD PUSH2 0xCF0 PUSH2 0x1A02 JUMP JUMPDEST SWAP1 DUP1 PUSH1 0x0 MSTORE PUSH1 0x6 PUSH1 0x20 MSTORE PUSH2 0xD0B PUSH1 0x1 PUSH1 0x40 PUSH1 0x0 KECCAK256 ADD SLOAD PUSH2 0x2069 JUMP JUMPDEST PUSH2 0x21B6 JUMP JUMPDEST STOP JUMPDEST CALLVALUE PUSH2 0x361 JUMPI PUSH1 0x0 CALLDATASIZE PUSH1 0x3 NOT ADD SLT PUSH2 0x361 JUMPI PUSH1 0x20 PUSH1 0x40 MLOAD PUSH32 0x2172861495E7B85EDAC73E3CD5FBB42DD675BAADF627720E687BCFDACA025096 DUP2 MSTORE RETURN JUMPDEST CALLVALUE PUSH2 0x361 JUMPI PUSH1 0x20 DUP1 PUSH1 0x3 NOT CALLDATASIZE ADD SLT PUSH2 0x361 JUMPI PUSH1 0x4 CALLDATALOAD PUSH2 0xD6B DUP2 PUSH2 0x222D JUMP JUMPDEST SWAP2 PUSH32 0x2172861495E7B85EDAC73E3CD5FBB42DD675BAADF627720E687BCFDACA025096 PUSH1 0x0 MSTORE PUSH1 0x6 DUP2 MSTORE PUSH1 0x40 PUSH1 0x0 KECCAK256 CALLER PUSH1 0x0 MSTORE DUP2 MSTORE PUSH1 0xFF PUSH1 0x40 PUSH1 0x0 KECCAK256 SLOAD AND DUP1 ISZERO PUSH2 0xF91 JUMPI JUMPDEST ISZERO DUP1 PUSH2 0xF7E JUMPI JUMPDEST PUSH2 0xF49 JUMPI PUSH1 0x0 DUP3 DUP2 MSTORE PUSH1 0x2 DUP3 MSTORE PUSH1 0x40 SWAP1 KECCAK256 SLOAD PUSH1 0x1 PUSH1 0x1 PUSH1 0xA0 SHL SUB SWAP1 DUP2 AND ISZERO ISZERO DUP1 PUSH2 0xF41 JUMPI JUMPDEST PUSH2 0xC1C JUMPI DUP3 PUSH1 0x0 MSTORE PUSH1 0x2 DUP3 MSTORE DUP1 PUSH1 0x40 PUSH1 0x0 KECCAK256 SLOAD AND DUP1 ISZERO SWAP1 DUP2 ISZERO DUP1 PUSH2 0xF13 JUMPI JUMPDEST PUSH1 0x0 DUP7 DUP2 MSTORE PUSH1 0x2 DUP7 MSTORE PUSH1 0x40 DUP2 KECCAK256 DUP1 SLOAD PUSH1 0x1 PUSH1 0x1 PUSH1 0xA0 SHL SUB NOT AND SWAP1 SSTORE DUP7 SWAP1 DUP4 PUSH32 0xDDF252AD1BE2C89B69C2B068FC378DAA952BA7F163C4A11628F55A4DF523B3EF DUP3 DUP1 LOG4 DUP1 PUSH2 0xEFD JUMPI JUMPDEST PUSH2 0xEE9 JUMPI JUMPDEST POP PUSH2 0xED0 JUMPI PUSH1 0x8 SWAP3 SWAP4 AND PUSH1 0x0 MSTORE PUSH1 0x9 DUP2 MSTORE PUSH1 0x40 PUSH1 0x0 KECCAK256 DUP4 DUP2 SLOAD EQ PUSH2 0xEC6 JUMPI JUMPDEST POP DUP3 PUSH1 0x0 MSTORE MSTORE PUSH1 0x0 PUSH1 0x4 PUSH1 0x40 DUP3 KECCAK256 DUP3 DUP2 SSTORE PUSH2 0xE83 PUSH1 0x1 DUP3 ADD PUSH2 0x1F5C JUMP JUMPDEST PUSH2 0xE8F PUSH1 0x2 DUP3 ADD PUSH2 0x1F5C JUMP JUMPDEST PUSH2 0xE9B PUSH1 0x3 DUP3 ADD PUSH2 0x1F5C JUMP JUMPDEST ADD SSTORE CALLER SWAP1 PUSH32 0x245FB0804FE7F77B540635AC247ABB32ED516166817EF35D54168F833FD63F35 PUSH1 0x0 DUP1 LOG3 STOP JUMPDEST PUSH1 0x0 SWAP1 SSTORE DUP4 PUSH2 0xE66 JUMP JUMPDEST PUSH1 0x40 MLOAD PUSH4 0x7E273289 PUSH1 0xE0 SHL DUP2 MSTORE PUSH1 0x4 DUP2 ADD DUP5 SWAP1 MSTORE PUSH1 0x24 SWAP1 REVERT JUMPDEST PUSH1 0x0 MSTORE PUSH1 0x9 DUP4 MSTORE PUSH1 0x0 PUSH1 0x40 DUP2 KECCAK256 SSTORE DUP6 PUSH2 0xE47 JUMP JUMPDEST POP DUP1 PUSH1 0x0 MSTORE PUSH1 0x9 DUP5 MSTORE DUP5 PUSH1 0x40 PUSH1 0x0 KECCAK256 SLOAD EQ PUSH2 0xE42 JUMP JUMPDEST PUSH1 0x4 DUP6 MSTORE PUSH1 0x40 PUSH1 0x0 DUP2 DUP2 KECCAK256 DUP1 SLOAD PUSH1 0x1 PUSH1 0x1 PUSH1 0xA0 SHL SUB NOT AND SWAP1 SSTORE DUP4 DUP2 MSTORE PUSH1 0x3 DUP8 MSTORE KECCAK256 DUP1 SLOAD PUSH1 0x0 NOT ADD SWAP1 SSTORE PUSH2 0xDFA JUMP JUMPDEST POP PUSH1 0x0 PUSH2 0xDDB JUMP JUMPDEST PUSH1 0x40 MLOAD PUSH3 0x461BCD PUSH1 0xE5 SHL DUP2 MSTORE PUSH1 0x20 PUSH1 0x4 DUP3 ADD MSTORE PUSH1 0xD PUSH1 0x24 DUP3 ADD MSTORE PUSH13 0x1058D8D95CDCC819195B9A5959 PUSH1 0x9A SHL PUSH1 0x44 DUP3 ADD MSTORE PUSH1 0x64 SWAP1 REVERT JUMPDEST POP CALLER PUSH1 0x1 PUSH1 0x1 PUSH1 0xA0 SHL SUB DUP5 AND EQ ISZERO PUSH2 0xDB6 JUMP JUMPDEST POP PUSH1 0x0 DUP1 MLOAD PUSH1 0x20 PUSH2 0x2598 DUP4 CODECOPY DUP2 MLOAD SWAP2 MSTORE PUSH1 0x0 MSTORE PUSH1 0x6 DUP2 MSTORE PUSH1 0x40 PUSH1 0x0 KECCAK256 CALLER PUSH1 0x0 MSTORE DUP2 MSTORE PUSH1 0xFF PUSH1 0x40 PUSH1 0x0 KECCAK256 SLOAD AND PUSH2 0xDAF JUMP JUMPDEST CALLVALUE PUSH2 0x361 JUMPI PUSH1 0x20 CALLDATASIZE PUSH1 0x3 NOT ADD SLT PUSH2 0x361 JUMPI PUSH2 0xFDD PUSH1 0x4 CALLDATALOAD PUSH2 0x222D JUMP JUMPDEST POP PUSH1 0x0 PUSH1 0x40 MLOAD PUSH2 0xFEC DUP2 PUSH2 0x1AB8 JUMP JUMPDEST MSTORE PUSH2 0x1014 PUSH1 0x40 MLOAD PUSH2 0xFFC DUP2 PUSH2 0x1AB8 JUMP JUMPDEST PUSH1 0x0 DUP2 MSTORE PUSH1 0x40 MLOAD SWAP2 DUP3 SWAP2 PUSH1 0x20 DUP4 MSTORE PUSH1 0x20 DUP4 ADD SWAP1 PUSH2 0x1A27 JUMP JUMPDEST SUB SWAP1 RETURN JUMPDEST CALLVALUE PUSH2 0x361 JUMPI PUSH1 0x40 CALLDATASIZE PUSH1 0x3 NOT ADD SLT PUSH2 0x361 JUMPI PUSH1 0x4 CALLDATALOAD PUSH1 0x24 CALLDATALOAD SWAP1 PUSH1 0xFF DUP3 AND SWAP2 DUP3 DUP2 SUB PUSH2 0x361 JUMPI DUP2 PUSH1 0x0 MSTORE PUSH1 0x20 PUSH1 0x2 DUP2 MSTORE PUSH2 0x105E PUSH1 0x1 DUP1 PUSH1 0xA0 SHL SUB PUSH1 0x40 PUSH1 0x0 KECCAK256 SLOAD AND ISZERO ISZERO PUSH2 0x1E38 JUMP JUMPDEST PUSH1 0x0 DUP1 MLOAD PUSH1 0x20 PUSH2 0x2598 DUP4 CODECOPY DUP2 MLOAD SWAP2 MSTORE PUSH1 0x0 MSTORE PUSH1 0x6 DUP2 MSTORE PUSH1 0x40 PUSH1 0x0 KECCAK256 CALLER PUSH1 0x0 MSTORE DUP2 MSTORE PUSH1 0xFF PUSH1 0x40 PUSH1 0x0 KECCAK256 SLOAD AND ISZERO DUP1 PUSH2 0x10EC JUMPI JUMPDEST PUSH2 0xF49 JUMPI PUSH1 0x0 DUP4 DUP2 MSTORE PUSH1 0x8 DUP3 MSTORE PUSH1 0x40 SWAP1 KECCAK256 PUSH1 0x4 ADD DUP1 SLOAD PUSH1 0xFF PUSH1 0x88 SHL NOT AND PUSH1 0x88 SWAP4 SWAP1 SWAP4 SHL PUSH1 0xFF PUSH1 0x88 SHL AND SWAP3 SWAP1 SWAP3 OR SWAP1 SWAP2 SSTORE PUSH32 0x7DD86AA49D0F73E8EB396EEA99648CA985D58B08392CA231EBA14C64FFBA1E8F SWAP1 PUSH1 0x40 MLOAD SWAP4 DUP5 MSTORE CALLER SWAP4 LOG3 STOP JUMPDEST POP PUSH1 0x0 DUP1 MLOAD PUSH1 0x20 PUSH2 0x2578 DUP4 CODECOPY DUP2 MLOAD SWAP2 MSTORE PUSH1 0x0 MSTORE PUSH1 0x6 DUP2 MSTORE PUSH1 0x40 PUSH1 0x0 KECCAK256 CALLER PUSH1 0x0 MSTORE DUP2 MSTORE PUSH1 0xFF PUSH1 0x40 PUSH1 0x0 KECCAK256 SLOAD AND ISZERO PUSH2 0x108F JUMP JUMPDEST CALLVALUE PUSH2 0x361 JUMPI PUSH1 0x80 CALLDATASIZE PUSH1 0x3 NOT ADD SLT PUSH2 0x361 JUMPI PUSH2 0x1136 PUSH2 0x19EC JUMP JUMPDEST PUSH2 0x113E PUSH2 0x1A02 JUMP JUMPDEST SWAP1 PUSH1 0x44 CALLDATALOAD PUSH1 0x64 CALLDATALOAD SWAP3 PUSH1 0x1 PUSH1 0x1 PUSH1 0x40 SHL SUB DUP5 GT PUSH2 0x361 JUMPI CALLDATASIZE PUSH1 0x23 DUP6 ADD SLT ISZERO PUSH2 0x361 JUMPI PUSH2 0x1176 PUSH2 0xD10 SWAP5 CALLDATASIZE SWAP1 PUSH1 0x24 DUP2 PUSH1 0x4 ADD CALLDATALOAD SWAP2 ADD PUSH2 0x1B0F JUMP JUMPDEST SWAP3 PUSH2 0x1182 DUP4 DUP4 DUP4 PUSH2 0x1C52 JUMP JUMPDEST CALLER PUSH2 0x2409 JUMP JUMPDEST CALLVALUE PUSH2 0x361 JUMPI PUSH1 0x20 CALLDATASIZE PUSH1 0x3 NOT ADD SLT PUSH2 0x361 JUMPI PUSH1 0x1 PUSH1 0x1 PUSH1 0xA0 SHL SUB PUSH2 0x11A9 PUSH2 0x19EC JUMP JUMPDEST AND PUSH1 0x0 MSTORE PUSH1 0x9 PUSH1 0x20 MSTORE PUSH1 0x20 PUSH1 0x40 PUSH1 0x0 KECCAK256 SLOAD PUSH1 0x40 MLOAD SWAP1 DUP2 MSTORE RETURN JUMPDEST CALLVALUE PUSH2 0x361 JUMPI PUSH1 0x40 CALLDATASIZE PUSH1 0x3 NOT ADD SLT PUSH2 0x361 JUMPI PUSH2 0x11DB PUSH2 0x19EC JUMP JUMPDEST POP PUSH2 0x11E4 PUSH2 0x1A18 JUMP JUMPDEST POP PUSH1 0x40 MLOAD PUSH4 0x9CBE2357 PUSH1 0xE0 SHL DUP2 MSTORE PUSH1 0x4 SWAP1 REVERT JUMPDEST CALLVALUE PUSH2 0x361 JUMPI PUSH1 0x0 CALLDATASIZE PUSH1 0x3 NOT ADD SLT PUSH2 0x361 JUMPI PUSH1 0x20 PUSH1 0x40 MLOAD PUSH1 0x0 DUP2 MSTORE RETURN JUMPDEST CALLVALUE PUSH2 0x361 JUMPI PUSH1 0x0 CALLDATASIZE PUSH1 0x3 NOT ADD SLT PUSH2 0x361 JUMPI PUSH1 0x40 MLOAD PUSH1 0x0 PUSH1 0x1 DUP3 PUSH1 0x1 SLOAD SWAP3 PUSH2 0x1239 DUP5 PUSH2 0x1B73 JUMP JUMPDEST SWAP3 DUP4 DUP4 MSTORE PUSH1 0x20 SWAP5 DUP6 PUSH1 0x1 DUP3 AND SWAP2 DUP3 PUSH1 0x0 EQ PUSH2 0x12D6 JUMPI POP POP PUSH1 0x1 EQ PUSH2 0x1279 JUMPI JUMPDEST POP PUSH2 0x1265 SWAP3 POP SUB DUP4 PUSH2 0x1AD3 JUMP JUMPDEST PUSH2 0x1014 PUSH1 0x40 MLOAD SWAP3 DUP3 DUP5 SWAP4 DUP5 MSTORE DUP4 ADD SWAP1 PUSH2 0x1A27 JUMP JUMPDEST DUP5 SWAP2 POP PUSH1 0x1 PUSH1 0x0 MSTORE PUSH32 0xB10E2D527612073B26EECDFD717E6A320CF44B4AFAC2B0732D9FCBE2B7FA0CF6 SWAP1 PUSH1 0x0 SWAP2 JUMPDEST DUP6 DUP4 LT PUSH2 0x12BE JUMPI POP POP PUSH2 0x1265 SWAP4 POP DUP3 ADD ADD DUP6 PUSH2 0x1258 JUMP JUMPDEST DUP1 SLOAD DUP4 DUP10 ADD DUP6 ADD MSTORE DUP8 SWAP5 POP DUP7 SWAP4 SWAP1 SWAP3 ADD SWAP2 DUP2 ADD PUSH2 0x12A7 JUMP JUMPDEST PUSH1 0xFF NOT AND DUP6 DUP3 ADD MSTORE PUSH2 0x1265 SWAP6 ISZERO ISZERO PUSH1 0x5 SHL DUP6 ADD ADD SWAP3 POP DUP8 SWAP2 POP PUSH2 0x1258 SWAP1 POP JUMP JUMPDEST CALLVALUE PUSH2 0x361 JUMPI PUSH1 0x40 CALLDATASIZE PUSH1 0x3 NOT ADD SLT PUSH2 0x361 JUMPI PUSH2 0x130F PUSH2 0x1A02 JUMP JUMPDEST PUSH1 0x4 CALLDATALOAD PUSH1 0x0 MSTORE PUSH1 0x6 PUSH1 0x20 MSTORE PUSH1 0x40 PUSH1 0x0 KECCAK256 SWAP1 PUSH1 0x1 DUP1 PUSH1 0xA0 SHL SUB AND PUSH1 0x0 MSTORE PUSH1 0x20 MSTORE PUSH1 0x20 PUSH1 0xFF PUSH1 0x40 PUSH1 0x0 KECCAK256 SLOAD AND PUSH1 0x40 MLOAD SWAP1 ISZERO ISZERO DUP2 MSTORE RETURN JUMPDEST CALLVALUE PUSH2 0x361 JUMPI PUSH1 0x0 CALLDATASIZE PUSH1 0x3 NOT ADD SLT PUSH2 0x361 JUMPI PUSH1 0x20 PUSH1 0x40 MLOAD PUSH1 0x0 DUP1 MLOAD PUSH1 0x20 PUSH2 0x2578 DUP4 CODECOPY DUP2 MLOAD SWAP2 MSTORE DUP2 MSTORE RETURN JUMPDEST CALLVALUE PUSH2 0x361 JUMPI PUSH1 0x20 CALLDATASIZE PUSH1 0x3 NOT ADD SLT PUSH2 0x361 JUMPI PUSH1 0x20 PUSH2 0x138A PUSH1 0x4 CALLDATALOAD PUSH2 0x1E76 JUMP JUMPDEST PUSH1 0x40 MLOAD SWAP1 ISZERO ISZERO DUP2 MSTORE RETURN JUMPDEST CALLVALUE PUSH2 0x361 JUMPI PUSH1 0x0 CALLDATASIZE PUSH1 0x3 NOT ADD SLT PUSH2 0x361 JUMPI PUSH1 0x20 PUSH1 0x40 MLOAD PUSH1 0x0 DUP1 MLOAD PUSH1 0x20 PUSH2 0x2598 DUP4 CODECOPY DUP2 MLOAD SWAP2 MSTORE DUP2 MSTORE RETURN JUMPDEST CALLVALUE PUSH2 0x361 JUMPI PUSH1 0x20 CALLDATASIZE PUSH1 0x3 NOT ADD SLT PUSH2 0x361 JUMPI PUSH2 0xD10 PUSH2 0x13D9 PUSH2 0x19EC JUMP JUMPDEST PUSH2 0x13E1 PUSH2 0x1FA5 JUMP JUMPDEST PUSH2 0x2304 JUMP JUMPDEST CALLVALUE PUSH2 0x361 JUMPI PUSH1 0x20 CALLDATASIZE PUSH1 0x3 NOT ADD SLT PUSH2 0x361 JUMPI PUSH1 0x1 PUSH1 0x1 PUSH1 0xA0 SHL SUB PUSH2 0x1407 PUSH2 0x19EC JUMP JUMPDEST AND DUP1 ISZERO PUSH2 0x1426 JUMPI PUSH1 0x0 MSTORE PUSH1 0x3 PUSH1 0x20 MSTORE PUSH1 0x20 PUSH1 0x40 PUSH1 0x0 KECCAK256 SLOAD PUSH1 0x40 MLOAD SWAP1 DUP2 MSTORE RETURN JUMPDEST PUSH1 0x40 MLOAD PUSH4 0x22718AD9 PUSH1 0xE2 SHL DUP2 MSTORE PUSH1 0x0 PUSH1 0x4 DUP3 ADD MSTORE PUSH1 0x24 SWAP1 REVERT JUMPDEST CALLVALUE PUSH2 0x361 JUMPI PUSH1 0x20 CALLDATASIZE PUSH1 0x3 NOT ADD SLT PUSH2 0x361 JUMPI PUSH1 0x20 PUSH2 0x145D PUSH1 0x4 CALLDATALOAD PUSH2 0x222D JUMP JUMPDEST PUSH1 0x40 MLOAD PUSH1 0x1 PUSH1 0x1 PUSH1 0xA0 SHL SUB SWAP1 SWAP2 AND DUP2 MSTORE RETURN JUMPDEST CALLVALUE PUSH2 0x361 JUMPI PUSH1 0x40 CALLDATASIZE PUSH1 0x3 NOT ADD SLT PUSH2 0x361 JUMPI PUSH1 0x4 CALLDATALOAD PUSH1 0x24 CALLDATALOAD SWAP1 PUSH1 0x1 PUSH1 0x1 PUSH1 0x40 SHL SUB DUP1 DUP4 AND SWAP3 DUP4 DUP2 SUB PUSH2 0x361 JUMPI PUSH2 0x14A2 PUSH2 0x201F JUMP JUMPDEST PUSH1 0x0 DUP4 DUP2 MSTORE PUSH1 0x2 PUSH1 0x20 MSTORE PUSH1 0x40 SWAP1 KECCAK256 SLOAD PUSH2 0x14C5 SWAP1 PUSH1 0x1 PUSH1 0x1 PUSH1 0xA0 SHL SUB AND ISZERO ISZERO PUSH2 0x1E38 JUMP JUMPDEST DUP3 PUSH1 0x0 MSTORE PUSH1 0x8 PUSH1 0x20 MSTORE PUSH1 0x4 PUSH1 0x40 PUSH1 0x0 KECCAK256 ADD SWAP2 DUP3 SLOAD AND DUP5 GT ISZERO PUSH2 0xC65 JUMPI DUP2 SLOAD PUSH16 0xFFFFFFFFFFFFFFFF0000000000000000 NOT AND PUSH1 0x40 SWAP2 SWAP1 SWAP2 SHL PUSH8 0xFFFFFFFFFFFFFFFF PUSH1 0x40 SHL AND OR SWAP1 SSTORE PUSH1 0x40 MLOAD SWAP2 DUP3 MSTORE PUSH32 0xF82D5D539C619378C21CFD3DDEA63992EAD4F1E7C62FA2AA9E7DDEB98F876C83 PUSH1 0x20 CALLER SWAP4 LOG3 STOP JUMPDEST CALLVALUE PUSH2 0x361 JUMPI PUSH2 0xD10 PUSH2 0x154B CALLDATASIZE PUSH2 0x1A67 JUMP JUMPDEST SWAP1 PUSH1 0x40 MLOAD SWAP3 PUSH2 0x1559 DUP5 PUSH2 0x1AB8 JUMP JUMPDEST PUSH1 0x0 DUP5 MSTORE PUSH2 0x1182 DUP4 DUP4 DUP4 PUSH2 0x1C52 JUMP JUMPDEST CALLVALUE PUSH2 0x361 JUMPI PUSH1 0x40 CALLDATASIZE PUSH1 0x3 NOT ADD SLT PUSH2 0x361 JUMPI PUSH2 0x1581 PUSH2 0x1A02 JUMP JUMPDEST CALLER PUSH1 0x1 PUSH1 0x1 PUSH1 0xA0 SHL SUB DUP3 AND SUB PUSH2 0x159D JUMPI PUSH2 0xD10 SWAP1 PUSH1 0x4 CALLDATALOAD PUSH2 0x21B6 JUMP JUMPDEST PUSH1 0x40 MLOAD PUSH4 0x334BD919 PUSH1 0xE1 SHL DUP2 MSTORE PUSH1 0x4 SWAP1 REVERT JUMPDEST CALLVALUE PUSH2 0x361 JUMPI PUSH1 0x20 CALLDATASIZE PUSH1 0x3 NOT ADD SLT PUSH2 0x361 JUMPI PUSH1 0x20 PUSH2 0x138A PUSH2 0x15CD PUSH2 0x19EC JUMP JUMPDEST PUSH2 0x1E08 JUMP JUMPDEST CALLVALUE PUSH2 0x361 JUMPI PUSH1 0x20 CALLDATASIZE PUSH1 0x3 NOT ADD SLT PUSH2 0x361 JUMPI PUSH2 0xD10 PUSH2 0x15EE PUSH2 0x19EC JUMP JUMPDEST PUSH2 0x15F6 PUSH2 0x1FA5 JUMP JUMPDEST PUSH2 0x2268 JUMP JUMPDEST CALLVALUE PUSH2 0x361 JUMPI PUSH1 0x40 CALLDATASIZE PUSH1 0x3 NOT ADD SLT PUSH2 0x361 JUMPI PUSH2 0xD10 PUSH1 0x4 CALLDATALOAD PUSH2 0x161A PUSH2 0x1A02 JUMP JUMPDEST SWAP1 DUP1 PUSH1 0x0 MSTORE PUSH1 0x6 PUSH1 0x20 MSTORE PUSH2 0x1635 PUSH1 0x1 PUSH1 0x40 PUSH1 0x0 KECCAK256 ADD SLOAD PUSH2 0x2069 JUMP JUMPDEST PUSH2 0x238E JUMP JUMPDEST CALLVALUE PUSH2 0x361 JUMPI PUSH1 0x20 CALLDATASIZE PUSH1 0x3 NOT ADD SLT PUSH2 0x361 JUMPI PUSH2 0xD10 PUSH2 0x1656 PUSH2 0x19EC JUMP JUMPDEST PUSH2 0x165E PUSH2 0x1FA5 JUMP JUMPDEST PUSH2 0x212E JUMP JUMPDEST CALLVALUE PUSH2 0x361 JUMPI PUSH1 0x20 CALLDATASIZE PUSH1 0x3 NOT ADD SLT PUSH2 0x361 JUMPI PUSH1 0x4 CALLDATALOAD PUSH1 0x0 MSTORE PUSH1 0x6 PUSH1 0x20 MSTORE PUSH1 0x20 PUSH1 0x1 PUSH1 0x40 PUSH1 0x0 KECCAK256 ADD SLOAD PUSH1 0x40 MLOAD SWAP1 DUP2 MSTORE RETURN JUMPDEST CALLVALUE PUSH2 0x361 JUMPI PUSH2 0xD10 PUSH2 0x16A3 CALLDATASIZE PUSH2 0x1A67 JUMP JUMPDEST SWAP2 PUSH2 0x1C52 JUMP JUMPDEST CALLVALUE PUSH2 0x361 JUMPI PUSH1 0x40 CALLDATASIZE PUSH1 0x3 NOT ADD SLT PUSH2 0x361 JUMPI PUSH2 0x11E4 PUSH2 0x19EC JUMP JUMPDEST CALLVALUE PUSH2 0x361 JUMPI PUSH1 0x20 CALLDATASIZE PUSH1 0x3 NOT ADD SLT PUSH2 0x361 JUMPI PUSH1 0x4 CALLDATALOAD PUSH2 0x16DF DUP2 PUSH2 0x222D JUMP JUMPDEST POP PUSH1 0x0 MSTORE PUSH1 0x4 PUSH1 0x20 MSTORE PUSH1 0x20 PUSH1 0x1 DUP1 PUSH1 0xA0 SHL SUB PUSH1 0x40 PUSH1 0x0 KECCAK256 SLOAD AND PUSH1 0x40 MLOAD SWAP1 DUP2 MSTORE RETURN JUMPDEST CALLVALUE PUSH2 0x361 JUMPI PUSH1 0x0 CALLDATASIZE PUSH1 0x3 NOT ADD SLT PUSH2 0x361 JUMPI PUSH1 0x40 MLOAD PUSH1 0x0 DUP1 SLOAD SWAP1 DUP3 PUSH2 0x1723 DUP4 PUSH2 0x1B73 JUMP JUMPDEST SWAP2 DUP3 DUP3 MSTORE PUSH1 0x20 SWAP4 PUSH1 0x1 SWAP1 DUP6 PUSH1 0x1 DUP3 AND SWAP2 DUP3 PUSH1 0x0 EQ PUSH2 0x12D6 JUMPI POP POP PUSH1 0x1 EQ PUSH2 0x1751 JUMPI POP PUSH2 0x1265 SWAP3 POP SUB DUP4 PUSH2 0x1AD3 JUMP JUMPDEST PUSH1 0x0 DUP1 DUP1 MSTORE DUP6 SWAP3 POP SWAP1 PUSH32 0x290DECD9548B62A8D60345A988386FC84BA6BC95484008F6362F93160EF3E563 JUMPDEST DUP6 DUP4 LT PUSH2 0x1793 JUMPI POP POP PUSH2 0x1265 SWAP4 POP DUP3 ADD ADD DUP6 PUSH2 0x1258 JUMP JUMPDEST DUP1 SLOAD DUP4 DUP10 ADD DUP6 ADD MSTORE DUP8 SWAP5 POP DUP7 SWAP4 SWAP1 SWAP3 ADD SWAP2 DUP2 ADD PUSH2 0x177C JUMP JUMPDEST CALLVALUE PUSH2 0x361 JUMPI PUSH1 0x40 CALLDATASIZE PUSH1 0x3 NOT ADD SLT PUSH2 0x361 JUMPI PUSH1 0x4 CALLDATALOAD PUSH2 0x17C7 PUSH2 0x1A18 JUMP JUMPDEST SWAP1 PUSH2 0x17D1 DUP2 PUSH2 0x222D JUMP JUMPDEST PUSH1 0x1 PUSH1 0x1 PUSH1 0xA0 SHL SUB AND CALLER EQ ISZERO DUP1 PUSH2 0x1858 JUMPI JUMPDEST PUSH2 0x1840 JUMPI PUSH1 0x0 DUP2 DUP2 MSTORE PUSH1 0x8 PUSH1 0x20 MSTORE PUSH1 0x40 SWAP1 KECCAK256 PUSH1 0x4 ADD DUP1 SLOAD PUSH1 0xFF PUSH1 0x80 SHL NOT AND DUP4 ISZERO ISZERO PUSH1 0x80 SHL PUSH1 0xFF PUSH1 0x80 SHL AND OR SWAP1 SSTORE PUSH1 0x40 MLOAD SWAP2 ISZERO ISZERO DUP3 MSTORE PUSH32 0x1152126DAC87D6B12A01466310A21CA9EA53085D01740AE71DE0758837E8DC47 PUSH1 0x20 CALLER SWAP4 LOG3 STOP JUMPDEST PUSH1 0x40 MLOAD PUSH4 0x5B9D0F5F PUSH1 0xE0 SHL DUP2 MSTORE CALLER PUSH1 0x4 DUP3 ADD MSTORE PUSH1 0x24 SWAP1 REVERT JUMPDEST POP CALLER PUSH1 0x0 SWAP1 DUP2 MSTORE PUSH1 0x0 DUP1 MLOAD PUSH1 0x20 PUSH2 0x2558 DUP4 CODECOPY DUP2 MLOAD SWAP2 MSTORE PUSH1 0x20 MSTORE PUSH1 0x40 SWAP1 KECCAK256 SLOAD PUSH1 0xFF AND ISZERO PUSH2 0x17E3 JUMP JUMPDEST CALLVALUE PUSH2 0x361 JUMPI PUSH1 0x40 CALLDATASIZE PUSH1 0x3 NOT ADD SLT PUSH2 0x361 JUMPI PUSH1 0x4 CALLDATALOAD PUSH2 0x189B PUSH2 0x1A18 JUMP JUMPDEST SWAP1 PUSH2 0x18A5 DUP2 PUSH2 0x222D JUMP JUMPDEST PUSH1 0x1 PUSH1 0x1 PUSH1 0xA0 SHL SUB AND CALLER EQ ISZERO DUP1 PUSH2 0x1914 JUMPI JUMPDEST PUSH2 0x1840 JUMPI PUSH1 0x0 DUP2 DUP2 MSTORE PUSH1 0x8 PUSH1 0x20 MSTORE PUSH1 0x40 SWAP1 KECCAK256 PUSH1 0x4 ADD DUP1 SLOAD PUSH1 0xFF PUSH1 0x90 SHL NOT AND DUP4 ISZERO ISZERO PUSH1 0x90 SHL PUSH1 0xFF PUSH1 0x90 SHL AND OR SWAP1 SSTORE PUSH1 0x40 MLOAD SWAP2 ISZERO ISZERO DUP3 MSTORE PUSH32 0x795D22567154F17942CD53BBFC965865778F6823CE9E1E6DEDA17C664D383C46 PUSH1 0x20 CALLER SWAP4 LOG3 STOP JUMPDEST POP CALLER PUSH1 0x0 SWAP1 DUP2 MSTORE PUSH1 0x0 DUP1 MLOAD PUSH1 0x20 PUSH2 0x2558 DUP4 CODECOPY DUP2 MLOAD SWAP2 MSTORE PUSH1 0x20 MSTORE PUSH1 0x40 SWAP1 KECCAK256 SLOAD PUSH1 0xFF AND ISZERO PUSH2 0x18B7 JUMP JUMPDEST CALLVALUE PUSH2 0x361 JUMPI PUSH1 0x20 CALLDATASIZE PUSH1 0x3 NOT ADD SLT PUSH2 0x361 JUMPI PUSH1 0x4 CALLDATALOAD PUSH4 0xFFFFFFFF PUSH1 0xE0 SHL DUP2 AND DUP1 SWAP2 SUB PUSH2 0x361 JUMPI PUSH1 0x20 SWAP1 PUSH4 0x7965DB0B PUSH1 0xE0 SHL DUP2 EQ SWAP1 DUP2 ISZERO PUSH2 0x1980 JUMPI JUMPDEST POP PUSH1 0x40 MLOAD SWAP1 ISZERO ISZERO DUP2 MSTORE RETURN JUMPDEST PUSH4 0x80AC58CD PUSH1 0xE0 SHL DUP2 EQ SWAP2 POP DUP2 ISZERO PUSH2 0x19B2 JUMPI JUMPDEST DUP2 ISZERO PUSH2 0x19A1 JUMPI JUMPDEST POP DUP3 PUSH2 0x1975 JUMP JUMPDEST PUSH4 0x1FFC9A7 PUSH1 0xE0 SHL EQ SWAP1 POP DUP3 PUSH2 0x199A JUMP JUMPDEST PUSH4 0x5B5E139F PUSH1 0xE0 SHL DUP2 EQ SWAP2 POP PUSH2 0x1993 JUMP JUMPDEST CALLVALUE PUSH2 0x361 JUMPI PUSH1 0x20 CALLDATASIZE PUSH1 0x3 NOT ADD SLT PUSH2 0x361 JUMPI PUSH2 0xD10 PUSH2 0x19DF PUSH2 0x19EC JUMP JUMPDEST PUSH2 0x19E7 PUSH2 0x1FA5 JUMP JUMPDEST PUSH2 0x208F JUMP JUMPDEST PUSH1 0x4 CALLDATALOAD SWAP1 PUSH1 0x1 PUSH1 0x1 PUSH1 0xA0 SHL SUB DUP3 AND DUP3 SUB PUSH2 0x361 JUMPI JUMP JUMPDEST PUSH1 0x24 CALLDATALOAD SWAP1 PUSH1 0x1 PUSH1 0x1 PUSH1 0xA0 SHL SUB DUP3 AND DUP3 SUB PUSH2 0x361 JUMPI JUMP JUMPDEST PUSH1 0x24 CALLDATALOAD SWAP1 DUP2 ISZERO ISZERO DUP3 SUB PUSH2 0x361 JUMPI JUMP JUMPDEST SWAP2 SWAP1 DUP3 MLOAD SWAP3 DUP4 DUP3 MSTORE PUSH1 0x0 JUMPDEST DUP5 DUP2 LT PUSH2 0x1A53 JUMPI POP POP DUP3 PUSH1 0x0 PUSH1 0x20 DUP1 SWAP5 SWAP6 DUP5 ADD ADD MSTORE PUSH1 0x1F DUP1 NOT SWAP2 ADD AND ADD ADD SWAP1 JUMP JUMPDEST PUSH1 0x20 DUP2 DUP4 ADD DUP2 ADD MLOAD DUP5 DUP4 ADD DUP3 ADD MSTORE ADD PUSH2 0x1A32 JUMP JUMPDEST PUSH1 0x60 SWAP1 PUSH1 0x3 NOT ADD SLT PUSH2 0x361 JUMPI PUSH1 0x1 PUSH1 0x1 PUSH1 0xA0 SHL SUB SWAP1 PUSH1 0x4 CALLDATALOAD DUP3 DUP2 AND DUP2 SUB PUSH2 0x361 JUMPI SWAP2 PUSH1 0x24 CALLDATALOAD SWAP1 DUP2 AND DUP2 SUB PUSH2 0x361 JUMPI SWAP1 PUSH1 0x44 CALLDATALOAD SWAP1 JUMP JUMPDEST PUSH2 0x120 DUP2 ADD SWAP1 DUP2 LT PUSH1 0x1 PUSH1 0x1 PUSH1 0x40 SHL SUB DUP3 GT OR PUSH2 0x922 JUMPI PUSH1 0x40 MSTORE JUMP JUMPDEST PUSH1 0x20 DUP2 ADD SWAP1 DUP2 LT PUSH1 0x1 PUSH1 0x1 PUSH1 0x40 SHL SUB DUP3 GT OR PUSH2 0x922 JUMPI PUSH1 0x40 MSTORE JUMP JUMPDEST SWAP1 PUSH1 0x1F DUP1 NOT SWAP2 ADD AND DUP2 ADD SWAP1 DUP2 LT PUSH1 0x1 PUSH1 0x1 PUSH1 0x40 SHL SUB DUP3 GT OR PUSH2 0x922 JUMPI PUSH1 0x40 MSTORE JUMP JUMPDEST PUSH1 0x1 PUSH1 0x1 PUSH1 0x40 SHL SUB DUP2 GT PUSH2 0x922 JUMPI PUSH1 0x1F ADD PUSH1 0x1F NOT AND PUSH1 0x20 ADD SWAP1 JUMP JUMPDEST SWAP3 SWAP2 SWAP3 PUSH2 0x1B1B DUP3 PUSH2 0x1AF4 JUMP JUMPDEST SWAP2 PUSH2 0x1B29 PUSH1 0x40 MLOAD SWAP4 DUP5 PUSH2 0x1AD3 JUMP JUMPDEST DUP3 SWAP5 DUP2 DUP5 MSTORE DUP2 DUP4 ADD GT PUSH2 0x361 JUMPI DUP3 DUP2 PUSH1 0x20 SWAP4 DUP5 PUSH1 0x0 SWAP7 ADD CALLDATACOPY ADD ADD MSTORE JUMP JUMPDEST SWAP2 DUP2 PUSH1 0x1F DUP5 ADD SLT ISZERO PUSH2 0x361 JUMPI DUP3 CALLDATALOAD SWAP2 PUSH1 0x1 PUSH1 0x1 PUSH1 0x40 SHL SUB DUP4 GT PUSH2 0x361 JUMPI PUSH1 0x20 DUP4 DUP2 DUP7 ADD SWAP6 ADD ADD GT PUSH2 0x361 JUMPI JUMP JUMPDEST SWAP1 PUSH1 0x1 DUP3 DUP2 SHR SWAP3 AND DUP1 ISZERO PUSH2 0x1BA3 JUMPI JUMPDEST PUSH1 0x20 DUP4 LT EQ PUSH2 0x1B8D JUMPI JUMP JUMPDEST PUSH4 0x4E487B71 PUSH1 0xE0 SHL PUSH1 0x0 MSTORE PUSH1 0x22 PUSH1 0x4 MSTORE PUSH1 0x24 PUSH1 0x0 REVERT JUMPDEST SWAP2 PUSH1 0x7F AND SWAP2 PUSH2 0x1B82 JUMP JUMPDEST SWAP1 PUSH1 0x40 MLOAD SWAP2 DUP3 PUSH1 0x0 DUP3 SLOAD PUSH2 0x1BC0 DUP2 PUSH2 0x1B73 JUMP JUMPDEST SWAP1 DUP2 DUP5 MSTORE PUSH1 0x20 SWAP5 PUSH1 0x1 SWAP2 PUSH1 0x1 DUP2 AND SWAP1 DUP2 PUSH1 0x0 EQ PUSH2 0x1C30 JUMPI POP PUSH1 0x1 EQ PUSH2 0x1BF1 JUMPI JUMPDEST POP POP POP PUSH2 0x1BEF SWAP3 POP SUB DUP4 PUSH2 0x1AD3 JUMP JUMPDEST JUMP JUMPDEST PUSH1 0x0 SWAP1 DUP2 MSTORE DUP6 DUP2 KECCAK256 SWAP6 SWAP4 POP SWAP2 SWAP1 JUMPDEST DUP2 DUP4 LT PUSH2 0x1C18 JUMPI POP POP PUSH2 0x1BEF SWAP4 POP DUP3 ADD ADD CODESIZE DUP1 DUP1 PUSH2 0x1BE0 JUMP JUMPDEST DUP6 SLOAD DUP9 DUP5 ADD DUP6 ADD MSTORE SWAP5 DUP6 ADD SWAP5 DUP8 SWAP5 POP SWAP2 DUP4 ADD SWAP2 PUSH2 0x1BFF JUMP JUMPDEST SWAP3 POP POP POP PUSH2 0x1BEF SWAP5 SWAP3 POP PUSH1 0xFF NOT AND DUP3 DUP5 ADD MSTORE ISZERO ISZERO PUSH1 0x5 SHL DUP3 ADD ADD CODESIZE DUP1 DUP1 PUSH2 0x1BE0 JUMP JUMPDEST PUSH1 0x1 PUSH1 0x1 PUSH1 0xA0 SHL SUB SWAP2 DUP3 AND SWAP3 SWAP1 SWAP2 DUP4 ISZERO PUSH2 0xC36 JUMPI PUSH1 0x0 SWAP3 DUP3 DUP5 MSTORE PUSH1 0x20 SWAP5 PUSH1 0x2 DUP7 MSTORE PUSH1 0x40 SWAP6 DUP4 DUP8 DUP8 KECCAK256 SLOAD AND ISZERO ISZERO DUP1 PUSH2 0x1E00 JUMPI JUMPDEST PUSH2 0x1DEF JUMPI SWAP1 DUP5 SWAP2 DUP3 DUP8 MSTORE PUSH1 0x2 DUP2 MSTORE DUP5 DUP9 DUP9 KECCAK256 SLOAD AND SWAP7 DUP8 SWAP2 CALLER ISZERO ISZERO DUP1 PUSH2 0x1D59 JUMPI JUMPDEST POP SWAP1 PUSH1 0x2 PUSH32 0xDDF252AD1BE2C89B69C2B068FC378DAA952BA7F163C4A11628F55A4DF523B3EF SWAP3 DUP5 PUSH2 0x1D2A JUMPI JUMPDEST DUP6 DUP4 MSTORE PUSH1 0x3 DUP2 MSTORE DUP12 DUP4 KECCAK256 DUP1 SLOAD PUSH1 0x1 ADD SWAP1 SSTORE DUP7 DUP4 MSTORE MSTORE DUP10 DUP2 KECCAK256 DUP1 SLOAD PUSH1 0x1 PUSH1 0x1 PUSH1 0xA0 SHL SUB NOT AND DUP6 OR SWAP1 SSTORE DUP1 LOG4 AND SWAP3 DUP4 DUP4 SUB PUSH2 0x1D09 JUMPI POP POP POP POP JUMP JUMPDEST PUSH1 0x64 SWAP5 POP MLOAD SWAP3 PUSH4 0x64283D7B PUSH1 0xE0 SHL DUP5 MSTORE PUSH1 0x4 DUP5 ADD MSTORE PUSH1 0x24 DUP4 ADD MSTORE PUSH1 0x44 DUP3 ADD MSTORE REVERT JUMPDEST DUP7 DUP4 MSTORE PUSH1 0x4 DUP2 MSTORE DUP12 DUP4 KECCAK256 DUP1 SLOAD PUSH1 0x1 PUSH1 0x1 PUSH1 0xA0 SHL SUB NOT AND SWAP1 SSTORE DUP5 DUP4 MSTORE PUSH1 0x3 DUP2 MSTORE DUP12 DUP4 KECCAK256 DUP1 SLOAD PUSH1 0x0 NOT ADD SWAP1 SSTORE PUSH2 0x1CD0 JUMP JUMPDEST SWAP2 SWAP4 SWAP5 POP SWAP2 POP DUP1 PUSH2 0x1DAE JUMPI JUMPDEST ISZERO PUSH2 0x1D75 JUMPI DUP6 SWAP3 SWAP2 DUP8 SWAP2 CODESIZE PUSH2 0x1CA4 JUMP JUMPDEST DUP8 DUP7 DUP9 PUSH2 0x1D92 JUMPI PUSH1 0x24 SWAP2 MLOAD SWAP1 PUSH4 0x7E273289 PUSH1 0xE0 SHL DUP3 MSTORE PUSH1 0x4 DUP3 ADD MSTORE REVERT JUMPDEST PUSH1 0x44 SWAP2 MLOAD SWAP1 PUSH4 0x177E802F PUSH1 0xE0 SHL DUP3 MSTORE CALLER PUSH1 0x4 DUP4 ADD MSTORE PUSH1 0x24 DUP3 ADD MSTORE REVERT JUMPDEST POP CALLER DUP8 EQ DUP1 ISZERO PUSH2 0x1DD3 JUMPI JUMPDEST DUP1 PUSH2 0x1D65 JUMPI POP DUP6 DUP3 MSTORE PUSH1 0x4 DUP2 MSTORE CALLER DUP6 DUP10 DUP5 KECCAK256 SLOAD AND EQ PUSH2 0x1D65 JUMP JUMPDEST POP DUP7 DUP3 MSTORE PUSH1 0x5 DUP2 MSTORE DUP8 DUP3 KECCAK256 CALLER DUP4 MSTORE DUP2 MSTORE PUSH1 0xFF DUP9 DUP4 KECCAK256 SLOAD AND PUSH2 0x1DB9 JUMP JUMPDEST DUP7 MLOAD PUSH4 0x9CBE2357 PUSH1 0xE0 SHL DUP2 MSTORE PUSH1 0x4 SWAP1 REVERT JUMPDEST POP PUSH1 0x1 PUSH2 0x1C84 JUMP JUMPDEST PUSH1 0x1 PUSH1 0x1 PUSH1 0xA0 SHL SUB AND PUSH1 0x0 SWAP1 DUP2 MSTORE PUSH1 0x9 PUSH1 0x20 MSTORE PUSH1 0x40 SWAP1 KECCAK256 SLOAD DUP1 ISZERO PUSH2 0x1E32 JUMPI PUSH2 0x1E2F SWAP1 PUSH2 0x1E76 JUMP JUMPDEST SWAP1 JUMP JUMPDEST POP PUSH1 0x0 SWAP1 JUMP JUMPDEST ISZERO PUSH2 0x1E3F JUMPI JUMP JUMPDEST PUSH1 0x40 MLOAD PUSH3 0x461BCD PUSH1 0xE5 SHL DUP2 MSTORE PUSH1 0x20 PUSH1 0x4 DUP3 ADD MSTORE PUSH1 0xF PUSH1 0x24 DUP3 ADD MSTORE PUSH15 0x125B9D985B1A59081D1BDAD95B9259 PUSH1 0x8A SHL PUSH1 0x44 DUP3 ADD MSTORE PUSH1 0x64 SWAP1 REVERT JUMPDEST PUSH1 0x0 SWAP1 DUP2 MSTORE PUSH1 0x2 PUSH1 0x20 MSTORE PUSH1 0x40 SWAP1 KECCAK256 SLOAD PUSH1 0x1 PUSH1 0x1 PUSH1 0xA0 SHL SUB AND ISZERO PUSH2 0x1F40 JUMPI PUSH1 0x8 PUSH1 0x20 MSTORE PUSH1 0x40 PUSH1 0x0 KECCAK256 PUSH1 0x4 PUSH1 0x40 MLOAD SWAP2 PUSH2 0x1EAC DUP4 PUSH2 0x1A9C JUMP JUMPDEST DUP1 SLOAD DUP4 MSTORE PUSH2 0x1EBC PUSH1 0x1 DUP3 ADD PUSH2 0x1BAD JUMP JUMPDEST PUSH1 0x20 DUP5 ADD MSTORE PUSH2 0x1ECD PUSH1 0x2 DUP3 ADD PUSH2 0x1BAD JUMP JUMPDEST PUSH1 0x40 DUP5 ADD MSTORE PUSH2 0x1EDE PUSH1 0x3 DUP3 ADD PUSH2 0x1BAD JUMP JUMPDEST PUSH1 0x60 DUP5 ADD MSTORE ADD SLOAD SWAP1 PUSH1 0x1 PUSH1 0x1 PUSH1 0x40 SHL SUB SWAP1 PUSH2 0x100 PUSH1 0xFF DUP4 DUP6 AND SWAP4 DUP5 PUSH1 0x80 DUP6 ADD MSTORE DUP6 PUSH1 0x40 SHR AND SWAP5 DUP6 PUSH1 0xA0 DUP6 ADD MSTORE DUP2 DUP2 PUSH1 0x80 SHR AND ISZERO ISZERO PUSH1 0xC0 DUP6 ADD MSTORE DUP2 DUP2 PUSH1 0x88 SHR AND PUSH1 0xE0 DUP6 ADD MSTORE PUSH1 0x90 SHR AND ISZERO ISZERO SWAP2 ADD MSTORE TIMESTAMP LT ISZERO SWAP1 DUP2 PUSH2 0x1F38 JUMPI POP SWAP1 JUMP JUMPDEST SWAP1 POP TIMESTAMP GT ISZERO SWAP1 JUMP JUMPDEST PUSH1 0x0 SWAP1 JUMP JUMPDEST DUP2 DUP2 LT PUSH2 0x1F50 JUMPI POP POP JUMP JUMPDEST PUSH1 0x0 DUP2 SSTORE PUSH1 0x1 ADD PUSH2 0x1F45 JUMP JUMPDEST PUSH2 0x1F66 DUP2 SLOAD PUSH2 0x1B73 JUMP JUMPDEST SWAP1 DUP2 PUSH2 0x1F70 JUMPI POP POP JUMP JUMPDEST DUP2 PUSH1 0x1F PUSH1 0x0 SWAP4 GT PUSH1 0x1 EQ PUSH2 0x1F82 JUMPI POP SSTORE JUMP JUMPDEST SWAP1 DUP1 DUP4 SWAP2 DUP3 MSTORE PUSH2 0x1FA1 PUSH1 0x1F PUSH1 0x20 DUP5 KECCAK256 SWAP5 ADD PUSH1 0x5 SHR DUP5 ADD PUSH1 0x1 DUP6 ADD PUSH2 0x1F45 JUMP JUMPDEST SSTORE SSTORE JUMP JUMPDEST CALLER PUSH1 0x0 SWAP1 DUP2 MSTORE PUSH32 0x94FDC7A45360F568054DFF4FD08A1BE79188F5F51F010270910B0659487F7108 PUSH1 0x20 MSTORE PUSH1 0x40 SWAP1 KECCAK256 SLOAD PUSH32 0x2172861495E7B85EDAC73E3CD5FBB42DD675BAADF627720E687BCFDACA025096 SWAP1 PUSH1 0xFF AND ISZERO PUSH2 0x2001 JUMPI POP JUMP JUMPDEST PUSH1 0x44 SWAP1 PUSH1 0x40 MLOAD SWAP1 PUSH4 0xE2517D3F PUSH1 0xE0 SHL DUP3 MSTORE CALLER PUSH1 0x4 DUP4 ADD MSTORE PUSH1 0x24 DUP3 ADD MSTORE REVERT JUMPDEST CALLER PUSH1 0x0 SWAP1 DUP2 MSTORE PUSH32 0xA6748B625E6483BC8AC5CC5EB2351B2DFE214A910918C8ACBFF99F8F4098F28C PUSH1 0x20 MSTORE PUSH1 0x40 SWAP1 KECCAK256 SLOAD PUSH1 0x0 DUP1 MLOAD PUSH1 0x20 PUSH2 0x2598 DUP4 CODECOPY DUP2 MLOAD SWAP2 MSTORE SWAP1 PUSH1 0xFF AND ISZERO PUSH2 0x2001 JUMPI POP JUMP JUMPDEST DUP1 PUSH1 0x0 MSTORE PUSH1 0x6 PUSH1 0x20 MSTORE PUSH1 0x40 PUSH1 0x0 KECCAK256 CALLER PUSH1 0x0 MSTORE PUSH1 0x20 MSTORE PUSH1 0xFF PUSH1 0x40 PUSH1 0x0 KECCAK256 SLOAD AND ISZERO PUSH2 0x2001 JUMPI POP JUMP JUMPDEST PUSH1 0x1 PUSH1 0x1 PUSH1 0xA0 SHL SUB AND PUSH1 0x0 DUP2 DUP2 MSTORE PUSH32 0xA6748B625E6483BC8AC5CC5EB2351B2DFE214A910918C8ACBFF99F8F4098F28C PUSH1 0x20 MSTORE PUSH1 0x40 DUP2 KECCAK256 SLOAD SWAP1 SWAP2 SWAP1 PUSH1 0x0 DUP1 MLOAD PUSH1 0x20 PUSH2 0x2598 DUP4 CODECOPY DUP2 MLOAD SWAP2 MSTORE SWAP1 PUSH1 0xFF AND ISZERO PUSH2 0x2129 JUMPI DUP1 DUP4 MSTORE PUSH1 0x6 PUSH1 0x20 MSTORE PUSH1 0x40 DUP4 KECCAK256 DUP3 DUP5 MSTORE PUSH1 0x20 MSTORE PUSH1 0x40 DUP4 KECCAK256 PUSH1 0xFF NOT DUP2 SLOAD AND SWAP1 SSTORE PUSH32 0xF6391F5C32D9C69D2A47EA670B442974B53935D1EDC7FD64EB21E047A839171B CALLER SWAP4 DUP1 LOG4 PUSH1 0x1 SWAP1 JUMP JUMPDEST POP POP SWAP1 JUMP JUMPDEST PUSH1 0x1 PUSH1 0x1 PUSH1 0xA0 SHL SUB AND PUSH1 0x0 DUP2 DUP2 MSTORE PUSH1 0x0 DUP1 MLOAD PUSH1 0x20 PUSH2 0x2558 DUP4 CODECOPY DUP2 MLOAD SWAP2 MSTORE PUSH1 0x20 MSTORE PUSH1 0x40 DUP2 KECCAK256 SLOAD SWAP1 SWAP2 SWAP1 PUSH1 0x0 DUP1 MLOAD PUSH1 0x20 PUSH2 0x2578 DUP4 CODECOPY DUP2 MLOAD SWAP2 MSTORE SWAP1 PUSH1 0xFF AND ISZERO PUSH2 0x2129 JUMPI DUP1 DUP4 MSTORE PUSH1 0x6 PUSH1 0x20 MSTORE PUSH1 0x40 DUP4 KECCAK256 DUP3 DUP5 MSTORE PUSH1 0x20 MSTORE PUSH1 0x40 DUP4 KECCAK256 PUSH1 0xFF NOT DUP2 SLOAD AND SWAP1 SSTORE PUSH32 0xF6391F5C32D9C69D2A47EA670B442974B53935D1EDC7FD64EB21E047A839171B CALLER SWAP4 DUP1 LOG4 PUSH1 0x1 SWAP1 JUMP JUMPDEST SWAP1 PUSH1 0x0 SWAP2 DUP1 DUP4 MSTORE PUSH1 0x6 PUSH1 0x20 MSTORE PUSH1 0x40 DUP4 KECCAK256 SWAP2 PUSH1 0x1 DUP1 PUSH1 0xA0 SHL SUB AND SWAP2 DUP3 DUP5 MSTORE PUSH1 0x20 MSTORE PUSH1 0xFF PUSH1 0x40 DUP5 KECCAK256 SLOAD AND PUSH1 0x0 EQ PUSH2 0x2129 JUMPI DUP1 DUP4 MSTORE PUSH1 0x6 PUSH1 0x20 MSTORE PUSH1 0x40 DUP4 KECCAK256 DUP3 DUP5 MSTORE PUSH1 0x20 MSTORE PUSH1 0x40 DUP4 KECCAK256 PUSH1 0xFF NOT DUP2 SLOAD AND SWAP1 SSTORE PUSH32 0xF6391F5C32D9C69D2A47EA670B442974B53935D1EDC7FD64EB21E047A839171B CALLER SWAP4 DUP1 LOG4 PUSH1 0x1 SWAP1 JUMP JUMPDEST PUSH1 0x0 DUP2 DUP2 MSTORE PUSH1 0x2 PUSH1 0x20 MSTORE PUSH1 0x40 SWAP1 KECCAK256 SLOAD PUSH1 0x1 PUSH1 0x1 PUSH1 0xA0 SHL SUB AND SWAP1 DUP2 ISZERO PUSH2 0x2250 JUMPI POP SWAP1 JUMP JUMPDEST PUSH1 0x24 SWAP1 PUSH1 0x40 MLOAD SWAP1 PUSH4 0x7E273289 PUSH1 0xE0 SHL DUP3 MSTORE PUSH1 0x4 DUP3 ADD MSTORE REVERT JUMPDEST PUSH1 0x1 PUSH1 0x1 PUSH1 0xA0 SHL SUB AND PUSH1 0x0 DUP2 DUP2 MSTORE PUSH32 0xA6748B625E6483BC8AC5CC5EB2351B2DFE214A910918C8ACBFF99F8F4098F28C PUSH1 0x20 MSTORE PUSH1 0x40 DUP2 KECCAK256 SLOAD SWAP1 SWAP2 SWAP1 PUSH1 0x0 DUP1 MLOAD PUSH1 0x20 PUSH2 0x2598 DUP4 CODECOPY DUP2 MLOAD SWAP2 MSTORE SWAP1 PUSH1 0xFF AND PUSH2 0x2129 JUMPI DUP1 DUP4 MSTORE PUSH1 0x6 PUSH1 0x20 MSTORE PUSH1 0x40 DUP4 KECCAK256 DUP3 DUP5 MSTORE PUSH1 0x20 MSTORE PUSH1 0x40 DUP4 KECCAK256 PUSH1 0x1 PUSH1 0xFF NOT DUP3 SLOAD AND OR SWAP1 SSTORE PUSH32 0x2F8788117E7EFF1D82E926EC794901D17C78024A50270940304540A733656F0D CALLER SWAP4 DUP1 LOG4 PUSH1 0x1 SWAP1 JUMP JUMPDEST PUSH1 0x1 PUSH1 0x1 PUSH1 0xA0 SHL SUB AND PUSH1 0x0 DUP2 DUP2 MSTORE PUSH1 0x0 DUP1 MLOAD PUSH1 0x20 PUSH2 0x2558 DUP4 CODECOPY DUP2 MLOAD SWAP2 MSTORE PUSH1 0x20 MSTORE PUSH1 0x40 DUP2 KECCAK256 SLOAD SWAP1 SWAP2 SWAP1 PUSH1 0x0 DUP1 MLOAD PUSH1 0x20 PUSH2 0x2578 DUP4 CODECOPY DUP2 MLOAD SWAP2 MSTORE SWAP1 PUSH1 0xFF AND PUSH2 0x2129 JUMPI DUP1 DUP4 MSTORE PUSH1 0x6 PUSH1 0x20 MSTORE PUSH1 0x40 DUP4 KECCAK256 DUP3 DUP5 MSTORE PUSH1 0x20 MSTORE PUSH1 0x40 DUP4 KECCAK256 PUSH1 0x1 PUSH1 0xFF NOT DUP3 SLOAD AND OR SWAP1 SSTORE PUSH32 0x2F8788117E7EFF1D82E926EC794901D17C78024A50270940304540A733656F0D CALLER SWAP4 DUP1 LOG4 PUSH1 0x1 SWAP1 JUMP JUMPDEST SWAP1 PUSH1 0x0 SWAP2 DUP1 DUP4 MSTORE PUSH1 0x6 PUSH1 0x20 MSTORE PUSH1 0x40 DUP4 KECCAK256 SWAP2 PUSH1 0x1 DUP1 PUSH1 0xA0 SHL SUB AND SWAP2 DUP3 DUP5 MSTORE PUSH1 0x20 MSTORE PUSH1 0xFF PUSH1 0x40 DUP5 KECCAK256 SLOAD AND ISZERO PUSH1 0x0 EQ PUSH2 0x2129 JUMPI DUP1 DUP4 MSTORE PUSH1 0x6 PUSH1 0x20 MSTORE PUSH1 0x40 DUP4 KECCAK256 DUP3 DUP5 MSTORE PUSH1 0x20 MSTORE PUSH1 0x40 DUP4 KECCAK256 PUSH1 0x1 PUSH1 0xFF NOT DUP3 SLOAD AND OR SWAP1 SSTORE PUSH32 0x2F8788117E7EFF1D82E926EC794901D17C78024A50270940304540A733656F0D CALLER SWAP4 DUP1 LOG4 PUSH1 0x1 SWAP1 JUMP JUMPDEST SWAP1 SWAP4 SWAP2 SWAP3 DUP4 EXTCODESIZE PUSH2 0x241B JUMPI JUMPDEST POP POP POP POP POP JUMP JUMPDEST PUSH1 0x40 MLOAD PUSH4 0xA85BD01 PUSH1 0xE1 SHL DUP1 DUP3 MSTORE PUSH1 0x1 PUSH1 0x1 PUSH1 0xA0 SHL SUB SWAP4 DUP5 AND PUSH1 0x4 DUP4 ADD MSTORE SWAP6 DUP4 AND PUSH1 0x24 DUP3 ADD MSTORE PUSH1 0x44 DUP2 ADD SWAP2 SWAP1 SWAP2 MSTORE PUSH1 0x80 PUSH1 0x64 DUP3 ADD MSTORE SWAP5 SWAP3 AND SWAP3 PUSH1 0x20 SWAP3 SWAP2 DUP6 SWAP1 PUSH2 0x2468 SWAP1 PUSH1 0x84 DUP4 ADD SWAP1 PUSH2 0x1A27 JUMP JUMPDEST SUB SWAP5 DUP4 DUP2 PUSH1 0x0 SWAP8 DUP2 DUP10 DUP10 GAS CALL DUP7 SWAP2 DUP2 PUSH2 0x2513 JUMPI JUMPDEST POP PUSH2 0x24DD JUMPI POP POP POP RETURNDATASIZE PUSH1 0x0 EQ PUSH2 0x24D4 JUMPI RETURNDATASIZE PUSH2 0x2496 DUP2 PUSH2 0x1AF4 JUMP JUMPDEST SWAP1 PUSH2 0x24A4 PUSH1 0x40 MLOAD SWAP3 DUP4 PUSH2 0x1AD3 JUMP JUMPDEST DUP2 MSTORE DUP1 SWAP4 DUP3 RETURNDATASIZE SWAP3 ADD RETURNDATACOPY JUMPDEST DUP3 MLOAD SWAP3 DUP4 PUSH2 0x24CF JUMPI PUSH1 0x40 MLOAD PUSH4 0x32505749 PUSH1 0xE1 SHL DUP2 MSTORE PUSH1 0x4 DUP2 ADD DUP5 SWAP1 MSTORE PUSH1 0x24 SWAP1 REVERT JUMPDEST ADD SWAP1 POP REVERT JUMPDEST PUSH1 0x60 SWAP3 POP PUSH2 0x24AE JUMP JUMPDEST SWAP2 SWAP5 POP SWAP2 POP PUSH4 0xFFFFFFFF PUSH1 0xE0 SHL AND SUB PUSH2 0x24FB JUMPI POP CODESIZE DUP1 DUP1 DUP1 DUP1 PUSH2 0x2414 JUMP JUMPDEST PUSH1 0x24 SWAP1 PUSH1 0x40 MLOAD SWAP1 PUSH4 0x32505749 PUSH1 0xE1 SHL DUP3 MSTORE PUSH1 0x4 DUP3 ADD MSTORE REVERT JUMPDEST SWAP1 SWAP2 POP DUP5 DUP2 DUP2 RETURNDATASIZE DUP4 GT PUSH2 0x2550 JUMPI JUMPDEST PUSH2 0x252B DUP2 DUP4 PUSH2 0x1AD3 JUMP JUMPDEST DUP2 ADD SUB SLT PUSH2 0x254C JUMPI MLOAD PUSH1 0x1 PUSH1 0x1 PUSH1 0xE0 SHL SUB NOT DUP2 AND DUP2 SUB PUSH2 0x254C JUMPI SWAP1 CODESIZE PUSH2 0x247C JUMP JUMPDEST DUP7 DUP1 REVERT JUMPDEST POP RETURNDATASIZE PUSH2 0x2521 JUMP INVALID TIMESTAMP 0xEB SWAP13 NUMBER DUP8 SELFBALANCE 0xB0 0xBF DUP8 0x4F DIV 0xD4 PUSH14 0x1BC49E6C61422660EFB64905C169 SWAP1 SUB PUSH22 0xB490037A85A5009099C5C520ED6BA1A9716432F12354 PUSH31 0x6790A9E051F560A5EBE4AFB5F4BA1C5FE0704BB1C4399E6BAA562444B507B8 0xDA 0xF8 0xD7 0xC9 PUSH0 STATICCALL 0x2D BLOBHASH 0xB0 PUSH12 0x442CA2646970667358221220 0x2D 0xF8 PUSH16 0xBED0178E31D687ED2A93304E12F9F8C1 0x24 PUSH3 0xD8A643 PUSH23 0x23CB0445EA26B464736F6C634300081800332F8788117E PUSH31 0xFF1D82E926EC794901D17C78024A50270940304540A733656F0D0000000000 "},"methodIdentifiers":{"DEFAULT_ADMIN_ROLE()":"a217fddf","ROLE_ADMIN()":"d391014b","ROLE_ISSUER()":"794d3850","ROLE_RESPONDER()":"86a50137","activeTokenOf(address)":"63a4feb1","approve(address,uint256)":"095ea7b3","balanceOf(address)":"70a08231","extendValidity(uint256,uint64)":"47fe464d","getActiveTokenId(address)":"a6e98e39","getApproved(uint256)":"081812fc","getProfile(uint256)":"f08f4f64","getRoleAdmin(bytes32)":"248a9ca3","grantIssuer(address)":"3068bffd","grantResponder(address)":"77328e38","grantRole(bytes32,address)":"2f2ff15d","hasRole(bytes32,address)":"91d14854","isActive(uint256)":"82afd23b","isApprovedForAll(address,address)":"e985e9c5","issueID(address,bytes32,string,string,string,uint64,uint64,bool,uint8)":"e8b439d6","name()":"06fdde03","ownerOf(uint256)":"6352211e","renounceRole(bytes32,address)":"36568abe","revokeID(uint256)":"ce3375d5","revokeIssuer(address)":"00629679","revokeResponder(address)":"273389bb","revokeRole(bytes32,address)":"d547741f","safeTransferFrom(address,address,uint256)":"42842e0e","safeTransferFrom(address,address,uint256,bytes)":"b88d4fde","setApprovalForAll(address,bool)":"a22cb465","setPanic(uint256,bool)":"0618a69b","setTrackingOptIn(uint256,bool)":"0647593f","supportsInterface(bytes4)":"01ffc9a7","symbol()":"95d89b41","tokenURI(uint256)":"c87b56dd","transferFrom(address,address,uint256)":"23b872dd","updateSafetyScore(uint256,uint8)":"bfaab516","verifyAddressActive(address)":"316d21b9"}}}}}